:100000000C94F6060C943D070C943D070C945F1A73
:100010000C943D070C943D070C943D070C943D0750
:100020000C943D070C943D070C94012F0C94D32F96
:100030000C941D280C943D070C943D070C943D072F
:100040000C943D070C943D070C943D070C943D0720
:100050000C943D070C9485280C943D070C943D07A7
:100060000C943D070C943D070C943D070C943D0700
:100070000C943D070C943D070C943D070C943D07F0
:100080000C943D070C943D070C943D070C943D07E0
:100090000C944D190C943D070C943D070C943D07AE
:1000A0000C943D070C943D070C943D07050E8C0EF7
:1000B0008C0E8C0E8C0E8C0E8C0ED80DE30D8C0ECF
:1000C0008C0E8C0E8C0ED50D8C0E8C0E8C0E8C0E18
:1000D0008C0E8C0E8C0E8C0E8C0EF40DF70DFC0D10
:1000E000FF0D020ED611EE11BA11B711A911A91107
:1000F000BE11C211CD11CD11CD11CD11C511C5113A
:10010000C511C511D211D211D211161E161E481ECC
:10011000481EED1F951EED1FED1FD71E6C1F7D1F86
:100120007D1FDD1FED1FED1FE61F792079208B203D
:100130008B2082208B208B208B2079207920872098
:100140008B208B208720403067305F3167305F31F4
:10015000B330D6305F312D313C310000000000005B
:100160003E5B4F5B3E003E6B4F6B3E001C3E7C3E59
:100170001C00183C7E3C18001C577D571C001C5E60
:100180007F5E1C0000183C180000FFE7C3E7FF007B
:10019000001824180000FFE7DBE7FF0030483A06AC
:1001A0000E00262979292600407F05050700407F9B
:1001B00005253F005A3CE73C5A007F3E1C1C0800C6
:1001C000081C1C3E7F0014227F2214005F5F005F2A
:1001D0005F0006097F017F00006689956A00606004
:1001E0006060600094A2FFA2940008047E040800EE
:1001F00010207E20100008082A1C0800081C2A086D
:1002000008001E10101010000C1E0C1E0C003038C0
:100210003E383000060E3E0E0600000000000000D2
:1002200000005F000000000700070000147F147F3B
:100230001400242A7F2A120023130864620036491E
:1002400056205000000807030000001C2241000057
:100250000041221C00002A1C7F1C2A0008083E08BE
:10026000080000807030000008080808080000003E
:10027000606000002010080402003E5149453E0025
:1002800000427F4000007249494946002141494DE2
:1002900033001814127F10002745454539003C4AA9
:1002A00049493100412111090700364949493600C1
:1002B000464949291E000000140000000040340097
:1002C000000000081422410014141414140000410A
:1002D000221408000201590906003E415D594E00F2
:1002E0007C1211127C007F49494936003E41414150
:1002F00022007F4141413E007F49494941007F0939
:10030000090901003E41415173007F0808087F0040
:1003100000417F4100002040413F01007F0814223E
:1003200041007F40404040007F021C027F007F046C
:1003300008107F003E4141413E007F090909060047
:100340003E4151215E007F0919294600264949494D
:10035000320003017F0103003F4040403F001F2067
:1003600040201F003F4038403F00631408146300E2
:100370000304780403006159494D4300007F414163
:100380004100020408102000004141417F000402A6
:100390000102040040404040400000030708000004
:1003A0002054547840007F28444438003844444462
:1003B0002800384444287F0038545454180000085A
:1003C0007E0902001824241C78007F0804047800A9
:1003D00000447D4000002040403D00007F10284444
:1003E000000000417F4000007C04780478007C0815
:1003F000040478003844444438007C18242418004D
:10040000182424187C007C08040408004854545420
:10041000240004043F4424003C4040207C001C2075
:1004200040201C003C4030403C0044281028440040
:100430004C9090907C004464544C44000008364139
:1004400000000000770000000041360800000201B3
:10045000020402003C2623263C00000000000000AD
:1004600000000000000000000000C0E0F0F8F818F4
:1004700000C0F0FCFEFFFFFFFFFFFFFF7E0000005B
:1004800000000000000080C0E0E0E0E0E0E0E0E02C
:10049000C0800000000080C0E0E0E0E0E0E0E0E0DC
:1004A000C080000000E0E0C0C0E0E0E0E00000E06C
:1004B000E0C0C0E0E0E0E0E0C0800000000080C0FC
:1004C000E0E0E0E0E0E0E0E0C080000000000000EC
:1004D0000000000000000000E0F0F0F0E0ECEEF7BB
:1004E000F37020007C7C7C7E007E7E7E7F7F7F00A0
:1004F0000080C0E07E5B4F5BFEC00000C000DCD728
:10050000DEDEDED7DC00C0000000000000000000DE
:1005100000000000000000000000000000000000DB
:10052000000000F8FCFEFFE000FFFFFFFFFFFF8080
:10053000FFFFFFFFFFFFFFFFFF1F0701000000009D
:100540000000000000FFFFFF8100000000000081AC
:10055000C3C3C30000FFFFFF810000000000008153
:10056000FFFFFF0000FFFFFF01000000000000FF91
:10057000FFFF010000000001FFFFFF0000FFFFFF81
:100580009D1C1C1C1C1C1C9DDFDFDF0000000000EC
:1005900000000000000000000F1F3F7F7F7F7F7F73
:1005A0003F1E0C001F1F1F3F003F3F3F7F7F7F000C
:1005B000307B7F7830202030787F3B0003000F7F36
:1005C0000F0F0F7F0F00030000000000000000006D
:1005D000000000000000000000000000000000001B
:1005E000000000030F1F3F3F3F3F1F1F3F3F7F7F24
:1005F0007F3F3F1F3F7F7F7F7F7C7878381C0F00D5
:1006000000000000000001030707070707070707AE
:10061000030100000000010307070707070707079A
:1006200003010000000707070000000000000007AA
:100630000707000000000000070707000000010393
:10064000070707070707070703010000000000006E
:10065000000000000000000000000000000000009A
:10066000000000000000000000000000000000008A
:10067000000000000000000000000000000000007A
:10068000000000000000000000000000000000006A
:100690000000000000000000000002E26003E20031
:1006A0002F00000034000000E400000004000000FF
:1006B0000500A100060091000700970008009400C3
:1006C00009008D000A0092000B0024000C002F008E
:1006D0000D0009000E001D000F00001010002A0080
:1006E00011001B001200230013000008140000007A
:1006F00015008E001600900017008F0018001A00D9
:100700001900A0001A008A001B009F001C002C008A
:100710001D0000002D003800360025003700320093
:10072000380000002F00000034000000E40000004A
:10073000040036000500000406003100070019001F
:1007400008002E000900000E0A0027000B009E0082
:100750000C008C000D0098000E008B000F00220191
:1007600010009300110020011200960013001F01D9
:10077000140000021500000C1600050017003000E0
:1007800018009500190028001A0008001B003D0001
:100790001C001E011D0000062D0000003600210176
:1007A0003700A200380000002F003A00340000009B
:1007B000E40000000400070005002100060011000D
:1007C000070017000800140009000D000A001200BD
:1007D0000B001E000C000C000D0018000E000B009A
:1007E0000F00060010001300110026001200160072
:1007F00013003A0014003B0015000E001600100014
:1008000017000F0018001500190020001A000A0038
:100810001B001F001C002D001D0003FF2D003700D2
:1008200036001C0037002200380003FF61756F009E
:10083000677A64206220202076006B73746E686D86
:1008400079727700616975656F000405060708090C
:100850000A0B0C0D0E0F1011121314151617181980
:100860001A1B1C1D2D363738041B0D0837180C07B2
:10087000060B17111005150F3813121C0A0E36142B
:10088000092D161A191D040506160917070B18114C
:10089000080C100E1C2D1413150A0F191A1B0D1D10
:1008A00012363738290014001A0008001500170006
:1008B0002B4404001600070009000A00E3001D0095
:1008C0001B00060019000500000000000000E20007
:1008D0002A42E1002A00130012000C0018001C003C
:1008E0002843095D0F000E000D000B0005510C5D43
:1008F0000B5D0A5D10001100000000000000E00028
:1009000028412C0069001E001F0020002100220049
:10091000010033000E5D0F5D340035000100010061
:100920002F00300001000100000000000000010065
:100930000451010068002700260025002400230040
:10094000010029004F005200510050000100310009
:10095000370236022E0034000000000000000100C3
:100960000100010001001E021F02200221022202DA
:1009700001008700880089008A008B0001000100C7
:100980000100010001000100000000000000010062
:100990000100010001002702260225022402230291
:1009A000010029002B0028004C002A000100010052
:1009B0000100010001000100000000000000010032
:1009C0000351010001003A003B003C003D003E00A5
:1009D000010033022F023002340235020100E1002F
:1009E000E300E200E400010000000000000001005C
:1009F00001000100010043004200410040003F00AF
:100A00000100940093009200910090000100E50025
:100A1000E700E600E4002C000000000000000100F8
:100A20000100010001000100000000003900530036
:100A3000000001000100145D155D01000100E100EE
:100A4000E300E200E40001000000000000000100FB
:100A50000100010001000000000000000000000093
:100A6000055101004D004B004E004A000100E50019
:100A7000E700E600E4002C00000000000000010098
:100A800001000100005C005C00000000165D175DC5
:100A90000100135D1F5D1E5D1D5D1C5D0100125D8B
:100AA0001B5D1A5D195D185D00000000000001006B
:100AB000E200E000000000000000215D205D225DFA
:100AC0000000000000000000245D235D0100000024
:100AD0000000000000000000000000000000010015
:100AE000E600E4000100000000000000000000003B
:100AF000010000000000F500F400F6000100000015
:100B0000FB00F900FA00FC000000000000000100FA
:100B100001000100000000000000000000000000D3
:100B200000000000F300F000F100F20001000000FE
:100B3000FF00FE00FD0000000000000000000100BA
:100B40000100010000000000000000002A2B280026
:100B5000000000000000000000000000000000296C
:100B6000000000002C1E3420212224342627252EAC
:100B7000362D3738271E1F202122232425263333E4
:100B8000362E37381F0405060708090A0B0C0D0E10
:100B90000F101112131415161718191A1B1C1D2FDC
:100BA0003130232D350405060708090A0B0C0D0EFC
:100BB0000F101112131415161718191A1B1C1D2FBC
:100BC0003130354C00000000000000000000000043
:100BD0000000000000000000000000000000000015
:100BE0000000000000000000000000000000000005
:100BF00000000000000000000000000000000000F5
:100C000000000000000000000000000000000000E4
:100C100000000000000000000000000000000000D4
:100C200000000000000000000000000000000000C4
:100C300000000000000000000000000000000000B4
:100C400000000000000000000000000000000000A4
:100C50000000000000000000000000000000000094
:100C6000000000000001010101010100010101017A
:100C70000000000000000000000000000000010073
:100C80000100010101010101010101010101010155
:100C90000101010101010101010101010101010045
:100CA0000000010100000000000000000000000042
:100CB0000000000000000000000000000000000133
:100CC000010101000403300000002E0343006F0007
:100CD00072006E00650020004B0065007900620024
:100CE0006F00610072006400200028006300720041
:100CF0006B006200640029000000100366006F00B2
:100D00006F007300740061006E00000004030904AA
:100D100009023B00020100A0FA09040000010301DE
:100D2000010009211101000122400007058103088B
:100D3000000A09040100010300000009211101005B
:100D400001224F000705820320000A120110010052
:100D5000000008EDFE6030010001020301050109F9
:100D600002A10185020901A1000509190129051542
:100D70000025019505750181029501750381010525
:100D800001093009311581257F9502750881060911
:100D9000381581257F950175088106050C0A3802F2
:100DA0001581257F950175088106C0C005010906DA
:100DB000A101050719E029E715002501950875012E
:100DC00081029501750881010507190029FF1500A9
:100DD00026FF00950675088100050819012905956B
:100DE0000575019102950175039101C011241FBE83
:100DF000CFEFDAE0DEBFCDBF04B603FE27C080919F
:100E0000DD049091DE04A091DF04B091E00487300E
:100E1000904BA740B04BD1F41092DD041092DE0449
:100E20001092DF041092E00414BE84B7877F84BF61
:100E30000FB6F894A8958091600088618093600057
:100E4000109260000FBEE0E0F8E3099513E0A0E027
:100E5000B1E0E4E6FAE602C005900D92A036B107D3
:100E6000D9F724E0A0E6B3E001C01D92AD3DB20782
:100E7000E1F70E94342C0C9430350C940000CF9391
:100E8000C82F88E70E940B1981110AC080E00E94D8
:100E90003E19811105C08C2F0E943E19C1E08111BD
:100EA000C0E00E9432198C2FCF910895CF93C62FA6
:100EB0000E943F07882321F08C2FCF910C943F078D
:100EC00080E0CF910895CF93C62F0E943F078823DB
:100ED00049F080E00E943F07882321F08C2FCF91BA
:100EE0000C943F0780E0CF9108958EEA0C943F0761
:100EF0008FEA0C943F070F931F93CF93DF938C01DE
:100F00000C5A1F4FD801ED91FC91119760832D91E0
:100F10003C9111972F5F3F4F2D933C93281B390B2A
:100F200024353105B9F4EC01BC016B5E7F4F4FE312
:100F300050E00E94CE31CE01CF96F801918380839C
:100F400045E150E060E270E0DF91CF911F910F9199
:100F50000C94E031DF91CF911F910F9108951F9371
:100F6000CF93DF93FC01EA5AFF4F21E020836A30E0
:100F700099F4EC013297808191818C1B9D0B65E186
:100F800070E00E94A731182F153158F460E2CE01AD
:100F90000E947B071F5FF8CFDF91CF911F910C94C8
:100FA0007B07DF91CF911F910895EF92FF920F93EE
:100FB0001F93CF93DF937C01EB01FB010190002095
:100FC000E9F78F0101501109C017D10728F4699181
:100FD000C7010E94AF07F8CFDF91CF911F910F910A
:100FE000FF90EF900895CF92DF92EF92FF920F93D0
:100FF0001F93CF93DF93CDB7DEB77C010DB71EB73C
:10100000DB010D900020E9F7CD01861B970B0196BF
:101010002DB73EB7281B390B0FB6F8943EBF0FBE55
:101020002DBF2F5F3F4F69017F936F932DE931E013
:101030003F932F939F938F93DF92CF920E94E7313C
:10104000B601C7010E94D5078DB79EB708960FB6A7
:10105000F8949EBF0FBE8DBF0FB6F8941EBF0FBE93
:101060000DBFDF91CF911F910F91FF90EF90DF9017
:10107000CF900895CF93DF93EC0144E550E060E218
:1010800070E00E94E031FE01EC5AFF4FD183C08333
:10109000CA5ADF4F81E08883DF91CF9108959F92F4
:1010A000AF92BF92CF92DF92EF92FF920F931F9376
:1010B000CF93DF93EC010E944F28909361038093BC
:1010C00060030E94780763E082E20E94630788233E
:1010D00009F43CC06DE781E20E9463078823B1F107
:1010E00088E70E940B19811131C080E40E943E19EB
:1010F00081112CC06E0184E0982E00E010E0F60112
:10110000E00FF11FA08086E0A89E50011124E12C81
:10111000F12CF501EE0DFF1DE65AFE4F84910E9461
:101120003E198FEFE81AF80A86E0E816F10489F70D
:101130000F5F1F4F0531110511F79A9485E1C80E15
:10114000D11C9110DACFCA5ADF4F1882DF91CF91AC
:101150001F910F91FF90EF90DF90CF90BF90AF90D5
:101160009F900C94321981E594E00C944F08CF9332
:10117000DF93C82F0E9405198EEA0E943F07811154
:1011800002C080E09BC060E885ED0E94560788237E
:10119000C1F36FE188EA0E945607882391F360E06B
:1011A00083ED0E945607882361F380E40E943F0785
:1011B000882339F364E18DE80E945607882309F3F8
:1011C00060E080E20E9456078823D9F2CC2339F0F0
:1011D00080EA0E943F078823A1F280EC06C081EAE2
:1011E0000E943F07882369F288EC0E943F0788230A
:1011F00041F262E08AED0E945607882311F26FE8FF
:1012000081E80E945607882309F4BBCF61EF89ED7E
:101210000E945607882309F4B4CF60E48BED0E9446
:101220005607882309F4ADCF84EA0E943F0788233C
:1012300009F4A7CF86EA0E943F07882309F4A1CFCB
:101240008EE20E943F07882309F49BCF8FEA0E9419
:101250003F07882309F495CF60E081E80E94560794
:10126000882309F48ECF81E594E00E943A0863E078
:1012700082E20E9463078823E1F06FE781E20E9427
:1012800063078823B1F088E70E940B19811111C010
:1012900080E40E943E1981110CC0D4E0C0E080E0DF
:1012A0000E943E19CF5FC038D1F7D150B9F71092E4
:1012B000A7040E9432190E94B30881E0DF91CF9108
:1012C00008950E9454128091A704811104C0809156
:1012D0000001882321F00E94B30810920001809140
:1012E0006003909161030E945B2881369A4E10F052
:1012F0000C947507089581E0809300010895CF93C1
:10130000DF93A7EAB1E04BEA51E061E070E08D9134
:10131000E82FE295EF70F0E021A18F70EB0102C0A1
:10132000CC0FDD1F8A95E2F7CE019C2F909592237A
:1013300091A392A1892B82A34A175B0741F7DF9102
:10134000CF9108950C949712559A209A5D9A289AF5
:1013500008955D9808955D9A089528980895289AAB
:1013600008950E945B0B0E947F09A1EAB1E041E071
:1013700050E08D91E82FE295EF70F0E021A18F70A1
:10138000BA0102C0660F771F8A95E2F7CB01962F4C
:101390009095922391A392A1892B82A371E0A73A01
:1013A000B70739F70E94A409EAE6F3E0A2E6B3E042
:1013B00011921D9283E0E237F807D1F70E943C0BAF
:1013C000809372030C94FA139F92AF92BF92CF92C4
:1013D000DF92EF92FF920F931F93CF93DF93809151
:1013E0000201811103C0C4E0D0E002C0C0E0D0E03F
:1013F000AE014E595C4F7A0187EAC82E81E0D82EA3
:101400008A01AA24A394B12C25E0922EFBEACF16E0
:10141000F1E0DF0609F44AC0F60181916F01E82F7F
:10142000E295EF70F0E021A18F70A50102C0440F9A
:10143000551F8A95E2F7CA01922F982B91A392A18A
:101440008095892382A350EA5A95F1F7E1EAF1E009
:1014500020E040E050E03191A32FA295AF70B0E0C2
:1014600090968C9190E03F7002C0959587953A9543
:10147000E2F780FD07C0C501042E01C0880F0A9461
:10148000EAF702C080E090E0282B4F5F5F4F4630C4
:10149000510509F7F8018081821719F02083909295
:1014A00001010E947F090F5F1F4FB0CF80910101A2
:1014B0008823B1F0815080930101811103C0C65986
:1014C000DC4F07C08FE99FE00197F1F700C00000F3
:1014D00007C0F70191917F0199938F5F8430C9F71D
:1014E00081E0DF91CF911F910F91FF90EF90DF90FE
:1014F000CF90BF90AF909F900895CF93DF932091AE
:101500000201211103C0C0E0D0E002C0C4E0D0E07D
:101510000E94760B009729F00297B1F40E94AD0962
:1015200013C00E94AF09C659DC4F80917E03909191
:101530007F03A0918003B091810388839983AA835C
:10154000BB8380E090E002C081E090E0DF91CF912A
:1015500008950E94E40980910201811103C0E4E032
:10156000F0E002C0E0E0F0E0E659FC4F20E030E0BF
:1015700080E0D901A258BC4F4C919191491381E070
:101580009C932F5F3F4F2430310599F7909177035B
:10159000890F809377030895CF93DF93809172032F
:1015A000882309F442C00E94E4098091020181115C
:1015B00003C0C4E0D0E002C0C0E0D0E0C659DC4FB8
:1015C00044E050E0BE018AE793E00E94C1314881C7
:1015D00059816A817B8140937A0350937B036093A6
:1015E0007C0370937D030E947D0A892BC9F00E94C1
:1015F000A909809173038F5F80937303863078F11C
:1016000080910201811103C0E0E0F0E002C0E4E05B
:10161000F0E0E659FC4F10821182128213821FC043
:101620000E94AB09109273031AC00E94A90A80910C
:101630000201811103C080E090E002C084E090E0EC
:10164000FC01E659FC4F40917A0350917B03609175
:101650007C0370917D0340835183628373830E9476
:10166000021481E0DF91CF910895E82FF0E0E65970
:10167000FC4F80810895089580917403811112C0F8
:101680008091D80080618093D8008AE18A95F1F733
:1016900000C08091D90080FD02C082E001C081E0DD
:1016A0008093740381E090917403913009F080E09D
:1016B00008950C943C0B0E94590B809302010E94E8
:1016C0003C0B882319F00E946A0B02C00E94700B29
:1016D0007894089563E070E083E091E00C940D1A33
:1016E00063E070E083E091E00C94161A0F931F936F
:1016F000CF93DF938C0190911C0180911B0198176F
:1017000061F082E090E00E94EF1AEC01892B39F43D
:1017100080911B0180931C0102C0C0E0D0E0012B2E
:1017200049F48091750390917603892B19F480E038
:1017300090E002C081E090E00E94EF1A892B49F40A
:101740008091770380931B011092760310927503AA
:1017500006C081E090E09093760380937503CE01FC
:10176000DF91CF911F910F9108958DE191E0089540
:10177000CF938C33910528F4FC01E054FE4FC081D7
:1017800001C0C0E21F92CF939F938F93FB01808192
:101790001F928F9381811F928F938FEA91E09F9385
:1017A0008F931F9288E18F9389E993E09F938F93A2
:1017B0000E94E7318DB79EB70E960FB6F8949EBF84
:1017C0000FBE8DBF8091820390918303449779F07F
:1017D0008091820390918303FC01EC57FC4FC083FE
:1017E00001969093830380938203CF910895109282
:1017F000830310928203E4E8F3E080E293E0E839A7
:10180000F90731F38193FACF0F931F93CF93DF93AF
:10181000EC018B010E947B09882329F0B801CE01DD
:101820000E94781202C080E090E08170DF91CF9139
:101830001F910F9108950C940212089581E008956C
:1018400080E0089561157105A9F080916C01909177
:101850006D01862B972B90936D0180936C01809185
:101860006E0190916F01682B792B70936F016093DB
:101870006E010CC0452B61F020916A0130916B0123
:10188000232B31F490936B0180936A0181E00895DA
:1018900080E00895813E910559F0853E910511F053
:1018A0008C9719F480E090E8089580E090E0089526
:1018B00080E090E40895292F221F2227221F220F63
:1018C00084E0989F812D992711248170820F8230A6
:1018D00039F08330E1F0813031F088EA97E005C0DB
:1018E00080EA96E002C084E297E09C012C573F4FCB
:1018F000FC01459154914617570729F4FC01329693
:1019000085919491089504962817390789F780E006
:1019100090E00895CF93DF93009741F0EC010E948F
:10192000EF12CE010E94051381E001C080E0DF913B
:10193000CF9108959C01861B970B6217730708F0DF
:1019400001970895EF92FF921F93CF93DF93EC01DD
:101950007B01FB0112810E944F289E01305421150A
:101960003A4108F46FC0209709F450C0F701228172
:101970002223B1F14091B3045091B4042091B104F9
:101980003091B204C417D50789F08217930728F065
:10199000AC01421B530B9A0104C020953095280FCF
:1019A000391F2639310560F42FEF17C082179307CE
:1019B00050F0FC01E21BF30B9F012C32314050F040
:1019C0001092AA0423C020953095280F391F2C327D
:1019D0003140B0F72091AA042F5F2093AA0416C0CB
:1019E0002091AF043091B004C217D30741F5209184
:1019F000B1043091B20482179307E0F0FC01E21BBE
:101A0000F30B9F013093B7042093B604112349F0E0
:101A1000D093B004C093AF049093AE048093AD0410
:101A200011C0D093B404C093B3049093B2048093D4
:101A3000B10408C020953095280F391FE3CF1092CC
:101A4000B504E4CF81E0DF91CF911F91FF90EF903B
:101A500008958091840190E0880F991FFC01EC5A51
:101A6000FC4F20813181FC01E65AFC4F808191813D
:101A7000009711F48AE498E09093B3038093B20343
:101A80003093B5032093B4030895833008F080E0C9
:101A90008093840108959C01245031092A31310535
:101AA00010F484501AC08A302DE5920779F028F49A
:101AB00089302DE5920781F008958B302DE592074E
:101AC00039F08C302DE5920729F008958BE105C09F
:101AD0008CE103C08DE101C08AE1E091B203F09195
:101AE000B303E80FF11D849190E00895CF93DF9345
:101AF0009C01245031092633310528F025503D45FD
:101B00002430310520F4DF91CF910C944B0D9C01D2
:101B100030562115304240F021E0AC0150544115BF
:101B2000504118F020E001C021E020FF07C0EC0187
:101B300099270E944B0DCC278C2B9D2BDF91CF91A9
:101B400008950C94760D20E3829FC0011124FC01BE
:101B500026E0729FE00DF11D1124E60FF11DEE0F3E
:101B6000FF1FEC55F74F859194910C94A10DCF92E6
:101B7000DF92EF92FF920F931F93CF93DF9300D0EA
:101B800000D01F92CDB7DEB7009709F4C5C0FC01A5
:101B900081159F4FE8F1E150FF4FEC31F10508F05E
:101BA000BBC0EA5AFF4F0C94BB318AE290E021C0DF
:101BB00081EE90E00E94EF1288E390E00E94EF1225
:101BC00088E390E00AC081EE90E00E94EF128EE17F
:101BD00090E00E94EF128EE190E00E94051381EEEA
:101BE00090E00E94051396C085E390E002C081E971
:101BF00090E00E948A0C8EC08BE890E0FACF8AE8D1
:101C000090E0F7CF88E890E0F4CF8CEF91E080C0CF
:101C1000A0ECB2E080E090E02D913C911197E217AA
:101C2000F30779F4880F991F880F991FDC01A054DE
:101C3000BD4F12968D919C911397009709F068C043
:101C400005C0019614968532910531F77F01E8941D
:101C5000E7F8FF24C70165E070E00E949331462F4A
:101C6000CF0188279E71892F99278695582F8E013D
:101C70000F5F1F4F6230E0F04EEF460FE078F170DB
:101C8000E038F10531F0E115F14041F420E7298316
:101C90000BC0E42FF0E0E05DF74F04C0E42FF0E06C
:101CA000E65CF74FE491E9839E012E5F3F4F01C050
:101CB0009801511111C06901BFEFCB1ADB0AC701AE
:101CC00065E070E00E949331FC01EC5BF74FE4911A
:101CD000D901EC93960116C05630A0F0411105C011
:101CE0004CE6F90140832F5F3F4F49E7D9014C9300
:101CF000A9014E5F5F4FFC01EA5DF74FE491119639
:101D0000EC939A010217130739F0F9011082C80108
:101D10000E94BA1381E001C080E00F900F900F90F5
:101D20000F900F90DF91CF911F910F91FF90EF9047
:101D3000DF90CF900895E1E6F1E0128211821286E1
:101D4000118614861386108A178616861586148ABD
:101D5000138A0895CF93C82F0E949B0EC0936101F0
:101D6000CC2361F08AE498E09093B3038093B203AC
:101D700080E092E09093B5038093B403CF910895EF
:101D80008093B103882339F18AE49CE09093770132
:101D9000809376018BE59CE09093790180937801A4
:101DA00080E29CE090937B0180937A0181E00E9425
:101DB000AA0E8AE498E09093B3038093B2038DE077
:101DC00092E09093B5038093B4038DE790E09093F5
:101DD00065018093640108950F931F93CF93DF9360
:101DE00000D0CDB7DEB70097E9F18C018091740186
:101DF000909175010F3F2FEF120771F10038110517
:101E000021F0011521E0120719F4802B912B24C039
:101E1000009729F4109375010093740123C0E09199
:101E20007A01F0917B01AE014F5F5F4FB8010995D8
:101E3000811107C080917401909175019A83898303
:101E400002C000E010E089819A810E94B70D0093E2
:101E500074011093750106C00E94B70D10927501B0
:101E6000109274010F900F90DF91CF911F910F91FD
:101E70000895CF93DF9360916A0170916B01209177
:101E80006C0130916D0180916E0190916F01E09134
:101E90007801F0917901822B932B0995EC01209127
:101EA0006C0130916D0134FD06C080916E019091FE
:101EB0006F0194FF02C0C06802C035FDD16036FFDB
:101EC0000BC0809170019091710184E0989F812DE9
:101ED00099271124817001C080E037FF06C09091DE
:101EE0007101991F9927991F01C090E0209731F443
:101EF00080FD02C0992311F0C9E3D0E0CE010E9419
:101F0000EC0E10926B0110926A0110926D0110920A
:101F10006C01109271011092700181E0CD2B09F4D7
:101F200080E0DF91CF910895AF92BF92CF92DF9280
:101F3000EF92FF920F931F93CF93DF937C01EB01FE
:101F4000D0906101D11002C081E0BDC080917201CA
:101F500090917301009759F00197909373018093CA
:101F60007201892B21F48FEF9FEF0E94EC0EE11498
:101F7000F10451F3CA800E944F285C01E091760180
:101F8000F0917701C7010995EC01E0917801F0919A
:101F90007901B70180916E0190916F0109958C01D3
:101FA0008038910509F46EC08115914009F46DC027
:101FB00091E0209721F40115110509F490E090FFBC
:101FC0005DC08091620190916301CC2049F1C115FF
:101FD00020E4D20759F0C11520E8D20739F0892B47
:101FE00009F05BC0B0926901A09268018091620122
:101FF0009091630101969093630180936201A8011F
:10200000BE01C7010E94220CD82E811138C00E9447
:10201000390FA801BE01C7010E94220CDC2C2FC081
:1020200001979093630180936201CE018095909512
:1020300020916E0130916F018223932390936F0161
:1020400080936E018091700190917101C82BD92B02
:10205000D0937101C09370010E94390F8091640187
:1020600090916501009729F48FEF9FEF0E94EC0E8D
:1020700006C0909373018093720101C0D12C81E05E
:102080008D2521C0C0E0D0E102C0C0E0D0E2E12C4B
:10209000F12C00E010E091E092CF60916801709126
:1020A0006901C5010E949A0C209166013091670177
:1020B0002817390708F09ACFB0926901A0926801F9
:1020C0000E94390F93CFDF91CF911F910F91FF9015
:1020D000EF90DF90CF90BF90AF9008952091B10323
:1020E00021110C94940F81E00895CF93C82F0E9482
:1020F000290DECE7F1E0C6830190F081E02D01901D
:10210000F081E02D8C2FCF9109948370E82FF0E0BF
:10211000EE0FFF1FE854FD4F8081918190937D0168
:1021200080937C01089580E00C947510909180015B
:10213000911106C0662371F08AE996E00C94F713BA
:10214000882311F080E901C081E961110C94C51C5C
:102150000C948F1D0895CF93C1E08C2F0E94D5243D
:10216000CF5FC031D1F780E00E94B4240E94931069
:1021700080E0CF910C947510ECE7F1E064817085FC
:10218000818597810C941827CF930E941427C72F1D
:10219000ECE7F1E064837087818797830E94851064
:1021A0008C2F0E94450D0E94931080E0CF910C94DB
:1021B0007510DF92EF92FF920F931F93CF93DF93EF
:1021C000EC017B01FB01D2800E94A20C182F882316
:1021D00009F403C1F701828181116DC08091B304BC
:1021E0009091B4048932910589F48091B60490915C
:1021F000B7048137F7E19F0718F00E941514EEC06D
:10220000893B9B4020F10E94AB10E8C088309D457F
:10221000F1F4909182018091AA04823041F08330E0
:1022200041F0813009F0DAC001E0992319F000E0B3
:1022300001C001E061E0802F0E94961060E0802FD5
:102240000E9496100E949310802F0E94751080911A
:10225000AA04813019F08230D1F02DC08091B304EE
:102260009091B4048B7F823E910529F5C1E0809165
:1022700082018111C0E061E08C2F0E94961060E025
:102280008C2F0E9496100E9493108C2F11C0809169
:10229000B3049091B404899771F461E080E00E94E6
:1022A000961060E080E00E9496100E94931080E0FB
:1022B0000E94751093C080918201811105C08091A8
:1022C0008101813071F02CC0E0917C01F0917D01A1
:1022D0000280F381E02DB701CE0109958111EFCF86
:1022E0007CC0CE018F978730910570F4FC01EF54CC
:1022F000FD4F8081882341F0DD2019F00E94C51C2C
:102300006CC00E948F1D69C0DD20C1F0CE30FDE59C
:10231000DF0709F45BC0CF302DE5D20779F459C04F
:10232000DD2061F0CE308DE5D80709F452C0CF3002
:10233000EDE5DE0719F488E192E04DC0FE01E051C1
:10234000FD45E331F10508F049C0EE58FF4F0C940C
:10235000BB3111E0C531DD4509F010E0812F0E944D
:102360007510F7016281812F0E94961025C010928E
:10237000810122C081E0809381011EC081E08093B1
:1023800083011AC01092830117C08C2F8C510E94B8
:10239000851081E00E9475100FC08C2F88510E941B
:1023A000450D0AC0C052C093800106C08091B4039D
:1023B0009091B5030E94BA13C09182010E949310BC
:1023C0008C2F0E9475100E94BC1007C086E192E01D
:1023D00002C084E192E00E94BA1310E0812FDF91E5
:1023E000CF911F910F91FF90EF90DF9008950E9481
:1023F00093100E94C4108DE591E090937D0180932D
:102400007C0108950E943C0B91E089270E94B70847
:102410000C94F711CF93DF93EC0180917203882322
:10242000F9F06CE272E0CE010E94D5076091B4032E
:102430007091B503CE010E94F3078091800188233B
:1024400041F0813019F462E272E005C066E272E0A8
:1024500002C06AE172E0CE01DF91CF910C94F307E4
:102460000E94B50BBC01CE01DF91CF910C94D50732
:102470000F931F93CF93DF93EC018B0144E550E062
:102480000E94C131892B59F084E5F801DE010190E9
:102490000D928A95E1F7CA5ADF4F81E08883DF9178
:1024A000CF911F910F910895CF93DF93CDB7DEB7F2
:1024B000C755D1090FB6F894DEBF0FBECDBFCE0110
:1024C00001960E943A08CE0101960E940A12BE01AE
:1024D0006F5F7F4F81E594E00E943812C95ADF4F49
:1024E0000FB6F894DEBF0FBECDBFDF91CF91089538
:1024F0000F931F93CF93DF93EC018B01FB0182813C
:10250000882319F0CE010E94B80BC33CFCE5DF071D
:1025100041F0B801CE01DF91CF911F910F910C9442
:10252000D91080E0DF91CF911F910F9108950F9303
:102530001F93CF93DF9300D000D000D0CDB7DEB78C
:102540000E9461098E010F5F1F4F86E0F801119212
:102550008A95E9F78FEF89838A830E944F288160EB
:102560009D838C83B80180E090E00E9478122696CB
:102570000FB6F894DEBF0FBECDBFDF91CF911F9194
:102580000F9108959C013A9521153F4138F5DC01E2
:10259000AA27B270AC01442754709C0122273870DE
:1025A00094FF0FC090FF02C080E101C080E0AB2B20
:1025B00009F08062452B09F08064232B69F0806864
:1025C0000BC0892F8170AB2B09F08260452B09F07D
:1025D0008460232B09F08860FB0109940895CF9350
:1025E000DF93EC01805E9109089710F0209719F4B1
:1025F00066ED7DE102C067E470E2CE010E94C21286
:102600008C2FDF91CF910C94C51CCF93DF93EC01FD
:102610000E948F1DCE01805E9109089710F02097CF
:1026200019F46DED7DE102C06EE470E2CE01DF9140
:10263000CF910C94C21281E008951F93CF93DF9342
:1026400000D000D01F92CDB7DEB749835A836B8389
:102650002091CE0389819A81211112C0662349F00D
:102660000E94AB25182F682F89819A810E945225DC
:1026700003C00E947E25182F69817A81812F04C0B2
:102680000E94AB2569817A810F900F900F900F9077
:102690000F90DF91CF911F910C94A30DFC0140810D
:1026A00051816281738184810C941D131F93CF9398
:1026B000DF9390E0FC01EC5BF44F1491FC01EC5BC8
:1026C000F34FD491FC01EC53F44FC491DD2319F086
:1026D00081EE0E94C51CCC2319F086EE0E94C51C19
:1026E000812F0E94C31DCC2319F086EE0E948F1DFE
:1026F000DD2331F081EEDF91CF911F910C948F1D7E
:10270000DF91CF911F910895FF920F931F93CF9365
:10271000DF93EC01F62E8881882331F18E010F5F63
:102720001F4F813031F4C9818C2F0E94C51C8C2F22
:102730000AC0823029F489810E94C51CE80108C0C2
:10274000833021F489810E948F1DF8CF0E94561397
:1027500021968F2D8823F9F2EFE9FFE03197F1F709
:1027600000C000008150F6CFDF91CF911F910F91F3
:10277000FF90089560E00C9484130F931F93CF9300
:10278000DF93EC01062FFE018491882359F19E010D
:102790002F5F3F4F813041F4E901F9011491812FFE
:1027A0000E94C51C812F0DC0823031F4E901F9016E
:1027B00084910E94C51C0AC0833031F4E901F901FB
:1027C00084910E948F1D02C00E9456132196802F73
:1027D0008823C9F2EFE9FFE03197F1F700C000006C
:1027E0008150F6CFDF91CF911F910F91089560E056
:1027F0000C94BD130E94DD26811102C00E94812726
:102800000C941B0C0C94A20908950C94041481E000
:1028100008950C940714CF93C82F0E9405148C2F91
:102820000E940914CF91089508950E9467200E9484
:1028300014142FEF84E39CE0215080409040E1F796
:1028400000C0000087E797E7909301088093000895
:102850000C94AB280F931F93CF93DF93EC010E944E
:102860004E138C01BE010E94040C882309F44FC052
:10287000BE01C8010E949E17882309F448C0BE010A
:10288000C8010E94DF17882309F441C08A81882388
:1028900071F001158CE5180739F00E3D8CE518072D
:1028A00031F40E94812733C00E94151430C00631D4
:1028B0001C4531F50E942C26982F8A8120918A018F
:1028C00030918B01882379F09A7A81E009F480E0D5
:1028D0008093B603911102C069E201C065E3C901AA
:1028E0000E94BB270AC08091B603811102C069E231
:1028F00001C065E3C9010E94BD270E947A2607C076
:10290000CE01DF91CF911F910F910C941B1380E0AA
:10291000DF91CF911F910F91089580E090E008958D
:102920000895880F991FFC01EC53F34F8591949102
:102930000895CF93DF930E94A30D0E945316EC01DC
:102940008115904508F041C0C11580E4D80708F012
:1029500028C1C83ED10510F5C03ED10508F09FC181
:10296000C83AD10578F4C53AD10508F0A2C0C13003
:10297000D10509F494C108F445C1C430D10508F06B
:102980008EC140C1CF3BD10508F49EC0C03CD105EB
:1029900008F438C1CE01805C9109F5C0C11590E200
:1029A000D90758F4C11521E0D20708F078C1C03F1B
:1029B000D10508F427C1D06572C1C11580E3D807DD
:1029C00008F0E5C0CE019F70DEC0C11595E5D907BE
:1029D00008F043C0C11524E5D20708F0F9C0C115BD
:1029E00082E5D80708F5C11591E5D90708F0DCC0E4
:1029F000CE0174E0969587957A95E1F783709C2FC8
:102A0000937021E030E002C0220F331F9A95E2F765
:102A10003C68382BCF70C695C69580E2C89FE00110
:102A20001124C22BD32B3BC19E01237033278C2F43
:102A300086958695C115D34508F0BBC0C1E0D0E0AE
:102A400002C0CC0FDD1F2A95E2F720E2829FC00171
:102A50001124C82BD92BDC6822C1C11529E5D20766
:102A6000A0F4C11588E5D80708F0B7C0C11596E5F0
:102A7000D90708F0C7C08C2F0E94E7168F71C82FA6
:102A8000D0E0DC2FCC27D0620AC1C1152AE5D207DD
:102A900008F4A8C0CE0190568115904208F0B2C04B
:102AA0008D2F8F710E94E716DD27D0628F71D82B92
:102AB000F6C0C53AD10509F4A8C0C63AD10509F057
:102AC000A7C0C2E8D0E4EBC0C83AD10509F4A3C05E
:102AD000C93AD10509F4A2C0CA3AD10509F4A1C086
:102AE000CB3AD10509F4A0C0CC3AD10509F49FC076
:102AF000CB3BD10509F49EC0CC3BD10509F49DC068
:102B0000CD3AD10509F49CC0C03BD10509F49BC066
:102B1000CE3AD10509F49AC0CF3AD10509F499C04B
:102B2000C13BD10509F498C0C23BD10509F497C057
:102B3000C33BD10509F496C0C43BD10509F495C047
:102B4000C53BD10509F494C0C63BD10509F493C037
:102B5000C73BD10509F492C0C83BD10509F491C027
:102B6000C93BD10509F490C0CD3BD10509F48FC014
:102B7000CE3BD10509F48EC0CA3BD10509F48DC006
:102B8000C0E0D4E48CC00E949114EC0188C0CE0156
:102B90009927D3FF03C0EC01D86C81C0EC01D06C45
:102BA0007EC0DF70D06A7BC0DC2FCC27C16FD06ABB
:102BB00076C0C1E0D0E002C0CC0FDD1F2A95E2F75D
:102BC00020E2829FC0011124C82BD92BDA6867C08C
:102BD000DC2FCC27C46FD06A62C0DC2FCC27C06F3B
:102BE000D06A5DC08C2F8F700E94E71694E0D69556
:102BF000C7959A95E1F7CF70D0E0DC2FCC27D0694C
:102C0000C82B4DC0C0E0D0E04AC0C1E8D0E447C006
:102C1000C3E8D0E444C0C2EED4E441C0C9EED4E479
:102C20003EC0CAEED4E43BC0C5EBD4E438C0C6EB2A
:102C3000D4E435C0C3EBD4E432C0C4EBD4E42FC039
:102C4000C7EBD4E42CC0CCECD4E429C0CDECD4E464
:102C500026C0C3E8D5E423C0CAE8D5E420C0C2E951
:102C6000D5E41DC0C4E9D5E41AC0C1E2D6E417C05A
:102C7000C3E2D6E414C0C4E2D6E411C0C5E2D6E48F
:102C80000EC0C6E2D6E40BC0C7E2D6E408C0CFE669
:102C9000D4E405C0C0E7D4E402C0CAE2D6E4CE0161
:102CA000DF91CF9108958238910569F1B0F48133B5
:102CB000910509F46DC048F48932910509F463C0A7
:102CC0008A32910509F469C008958533910509F4A4
:102CD00055C089339105B9F00895833E910569F196
:102CE00038F4803E9105B1F0823E910509F10895D6
:102CF000863E9105A9F1873E9105B9F1843E910583
:102D000009F064C023C02091CE0420FD4FC021FDF6
:102D10004DC008958091CE0480FD44C08091CF04C1
:102D200080FF44C08091CE0484FD42C083EE4DC03C
:102D30008091CE0482FF38C0F5CF8091CE0482FD11
:102D400033C08091CF0480FD31C0ECCF8091CF049F
:102D500081FF32C08091CE0484FD2AC087EE35C049
:102D60008091CE0483FF26C0F5CF8091CE0483FDF1
:102D700021C08091CF0481FD1FC0ECCF8091CE0493
:102D800085FD1CC01DC08091CE0485FD19C016C0F4
:102D90008091CE0486FD16C017C08091CE0486FDBA
:102DA00013C010C089E311C082EE0FC080EE0DC0C9
:102DB00080E00BC086EE09C084EE07C089E205C042
:102DC00085E303C08AE201C081E390E00895909119
:102DD000CE0492FF0DC0282F2871283019F4877F68
:102DE000846006C0282F2471243011F48B7F886002
:102DF00093FF0DC0282F2871283119F4877E846134
:102E000006C0282F2471243111F48B7E8861209113
:102E1000CF0420FF0DC0382F3871383019F4877F68
:102E2000816006C0382F3171313011F48E7F886097
:102E300021FF0DC0282F2871283119F4877E816168
:102E400006C0282F2171213111F48E7E886194FDF6
:102E5000877E08950F931F93CF93DF93C62FD42FB0
:102E6000122FFC0182818823C9F06093B9030E946C
:102E70004F289093B8038093B70380E28C0F88307B
:102E800008F057C0C77081E001C0880FCA95EAF703
:102E9000DF91CF911F910F910C94D61D8091B903B2
:102EA000681330C08091B7039091B8030E945B28EB
:102EB0008436910538F500E20D0FCD17B9F080E2A8
:102EC0008C0F883040F4C77081E001C0880FCA952C
:102ED000EAF70E94DD1D083028F581E09D2F9770EC
:102EE00001C0880F9A95EAF70E94D61D812F0E9493
:102EF000C31D0830F0F4D77081E001C0880FDA9567
:102F0000EAF70AC080E28C0F883098F4C77081E03D
:102F100001C0880FCA95EAF7DF91CF911F910F91F9
:102F20000C94DD1D812FDF91CF911F910F910C9497
:102F3000C31DDF91CF911F910F9108959C01CB018B
:102F4000233F4CE53407F9F078F4283DFCE53F07D2
:102F5000B9F0293D4CE5340711F1273D3C4531F5E9
:102F600026E241EE61EE1EC0253FFCE53F0799F0E9
:102F700070F0263F3C45D1F427E245EE66EE12C0E4
:102F800027E245EE0EC026E241EE60EE0BC027E2DE
:102F900045EE64EE07C026E241EE62EE03C028E291
:102FA00041E065EE0E942A1780E00895FC018281CD
:102FB000882319F01092B903089581E008951F93B2
:102FC000CF93DF93FB011281112309F40FC1EC01B0
:102FD0000E94F0269093CF048093CE04C031FCE58C
:102FE000DF0709F4C0C008F041C0C830ECE5DE07D7
:102FF00009F497C0F0F4C4308CE5D80709F486C012
:1030000068F4C230FCE5DF0709F476C0C330DC4564
:1030100009F0EDC08091CE04826075C0C630ECE549
:10302000DE0709F46DC008F078C08091CE04886096
:103030006AC0CC308CE5D80709F482C068F4CA3085
:10304000FCE5DF0709F471C008F076C00E94672034
:103050008091CE04806857C0CE30ECE5DE0709F4DD
:1030600073C008F07CC08091CE0488C0CB3F8CE553
:10307000D80709F44EC018F5C331FCE5DF0709F4A1
:103080007AC078F4C131ECE5DE0709F470C0C231D2
:10309000DC4509F0ACC00E9467208091CE048F7798
:1030A00032C0C5318CE5D80709F46FC008F485C07B
:1030B000CA3FDC4509F09BC08091CF043BC0CF3FA5
:1030C0008CE5D80709F45CC050F4CD3FFCE5DF0780
:1030D00009F441C0E8F18091CF0482602BC0C13077
:1030E000EDE5DE0709F475C008F45BC0C230DD45CC
:1030F00009F07DC080E06EC08091CE04816003C085
:103100008091CE0480618093CE0466C08091CE040D
:103110000FC08091CF0482604DC08091CE04806248
:10312000F2CF8091CE048064EECF8091CE0488608F
:103130008460E9CF81603EC08091CE048E7FE3CF72
:103140008091CE048D7FDFCF8091CE04877FDBCF4F
:103150008091CF0418C08091CF048D7F2BC08091C7
:10316000CE048F7ED0CF8091CE048F7DCCCF809146
:10317000CE048F7BC8CF8091CE04877F8B7FC3CF57
:103180008091CF048D7F8E7F15C08091CE0482FB0D
:10319000222720F991E0922790FB82F990FB83F996
:1031A000B2CF8091CF04982F909591708E7F892B0C
:1031B00090FB81F98093CF040FC00E94672080911B
:1031C000CE0487FB222720F991E0922790FB87F914
:1031D0009ACF81E00E9483278091CE049091CF0402
:1031E0000E9401270E94672010E001C011E0812F9A
:1031F000DF91CF911F91089583E390E02091BC006F
:1032000027FD02C00197D1F708951092B9008CE014
:103210008093B8000895CF93C82F84EA8093BC00B0
:103220000E94FC188091B900887F883039F0809125
:10323000B900887F803111F081E012C0C093BB00DB
:1032400084E88093BC000E94FC188091B900887FBC
:10325000883129F08091B900887F803469F780E057
:10326000CF91089584E98093BC0083E390E020919E
:10327000BC0024FD02C00197D1F708958093BB00E4
:1032800084E88093BC000E94FC189091B900987F5C
:1032900081E0983209F480E008951F920F920FB6F2
:1032A0000F9211248F939F93EF93FF938091B90016
:1032B000887F803869F038F48823C9F18036C9F5F1
:1032C0001092BA0336C0883A09F1883BF9F031C050
:1032D0008091BA03811111C08091BB008093BB0320
:1032E0008091BB03803120F01092BB0380E001C0CD
:1032F00081E091E09093BA031DC0E091BB03F0E040
:103300008091BB00E854FB4F808308C0E091BB0371
:10331000F0E0E854FB4F80818093BB008091BB03B9
:1033200090E001968F7099278093BB0302C01092A2
:10333000BC0081E09091BC008295880F880F807C52
:103340009568892B8093BC00FF91EF919F918F919D
:103350000F900FBE0F901F9018958EE14A9B02C0F0
:103360008150E1F74A9BFECF08955A9880E28A95F2
:10337000F1F75A9A0895FC012AE02A95F1F790E0B6
:1033800020E080E031E0261779F040E14A95F1F73E
:10339000880F4A9B02C08160932700C0000040E173
:1033A0004A95F1F72F5FEFCF20E12A95F1F729B188
:1033B00000C0000030E13A95F1F722FB222720F906
:1033C00092272081920F90830895EF92FF920F939E
:1033D0001F93CF93DF931F92CDB7DEB719828C0175
:1033E0007C01E60EF11C0E151F0559F00E94AD1967
:1033F00068E0CE0101960E94BB19F80181938F010C
:10340000F2CF81E09981911180E00F90DF91CF910F
:103410001F910F91FF90EF9008959093BE038093BA
:10342000BD036093BC03529A5A9A08959093BE03C9
:103430008093BD036093BC0352985A9AEA9AE9E6D6
:10344000F0E080818F7C80830895615091E001C01D
:10345000990F6A95EAF720E031E0992361F0492F4E
:10346000482319F05A9A232701C05A9840E24A95F6
:10347000F1F79695F2CF222311F05A9A01C05A988B
:1034800080E28A95F1F75A980895FF920F931F935F
:10349000CF93DF93EC018C01060F111DC017D107EC
:1034A00041F0F9900E94B51968E08F2D0E94251A0D
:1034B000F5CFDF91CF911F910F91FF9008951F924B
:1034C0000F920FB60F9211240F931F932F933F93D8
:1034D0004F935F936F937F938F939F93AF93BF931C
:1034E000EF93FF93CF93DF931F92CDB7DEB719828F
:1034F0000E94AD1967E0CE0101960E94BB19382FDA
:10350000369536953695932F96959570232F257081
:10351000920F292F2370969596958770920F891395
:1035200048C08981811145C08091BC03831708F48C
:1035300040C080E18A95F1F75A9A529AA2E0AA9582
:10354000F1F700C00091BD031091BE03B8E03B9FAE
:10355000000D111D11245A98F8016581662321F090
:10356000868197810E94451A0E94B519F0E1FA956B
:10357000F1F75A9852985A9A80E18A95F1F7D80152
:1035800012966C911297662369F013968D919C9117
:1035900014970E94E519D801ED91FC91811105C0A5
:1035A00082E004C0D801ED91FC9188E080830E9404
:1035B000AD190F90DF91CF91FF91EF91BF91AF9136
:1035C0009F918F917F916F915F914F913F912F913B
:1035D0001F910F910F900FBE0F901F9018950F9392
:1035E0001F93CF93DF932091BC0330E02817390756
:1035F0000CF471C09C0193E0220F331F9A95E1F700
:10360000C091BD03D091BE03C20FD31FF894529A4C
:103610005A9845E04A95F1F70000982F96959570D5
:103620008570890F982F937086958695890F8901EB
:10363000082B0E94B51984E08A95F1F700C067E075
:10364000802F0E94251A40E14A95F1F752985A9A24
:103650004A9902C000C0FCCF87E090E04A9B0EC0B0
:10366000019751F4529A5A9AE881F98181E0808356
:10367000789481E090E031C000C0F0CF6D81662386
:1036800081F08E819F810E94E51981110AC0529AB2
:103690005A9AE881F98182E08083789482E090E010
:1036A0001CC00E94AD1980E28A95F1F75A98529A8F
:1036B00040E14A95F1F76A81662321F08B819C8174
:1036C0000E94451A0E94B519E881F9811082789408
:1036D00080E090E002C084E090E0DF91CF911F9104
:1036E0000F9108959093C4038093C3030895E091CC
:1036F000C303F091C403309721F00190F081E02DD5
:10370000099480E00895E091C303F091C4033097D9
:1037100021F00280F381E02D09940895E091C30324
:10372000F091C403309739F022E0DC012C9304803F
:10373000F581E02D099408952091C1033091C203D1
:103740002817390771F09093C2038093C103E09169
:10375000C303F091C403309721F00680F781E02D78
:10376000099408952091BF033091C00328173907A9
:1037700071F09093C0038093BF03E091C303F09175
:10378000C403309721F00084F185E02D0994089559
:1037900085B7806885BF85B7806885BF089508951F
:1037A0000C94CF1B0C94D01B0C94CF1B0C94CF1BF0
:1037B0000E94C81B0E94D41B0C94D21B81E0089568
:1037C0000E9446280E94B1090E94BC280C94D61B76
:1037D000BF92CF92DF92EF92FF920F931F93CF93FE
:1037E000DF93CDB7DEB72A970FB6F894DEBF0FBED2
:1037F000CDBF0E94CC0A0E94DE1B811111C08FEF49
:1038000089838A831B820E944F288160782F9D8341
:103810008C8349815A816B818D810E94911C54C097
:1038200086ECC82E83E0D82E00E010E0B02E802F6A
:103830000E94350BE82EF60121916F01F82EF22639
:1038400031F40F5F1F4F0830110581F7D8CF8091F9
:103850003A0481FD0E943B0B80E090E02F2D30E088
:10386000482FB901082E02C0759567950A94E2F7B2
:1038700060FF25C08E83BF8281E090E06C0102C0B2
:10388000CC0CDD1C4A95E2F72E2D30E02C213D2199
:10389000232B09F480E088870E944F288160782FCD
:1038A0009A8789874E815F8168858A850E94911CED
:1038B000F801EA53FC4F80818C25808305C0019676
:1038C0008630910569F6BDCF0E944E2A0E94771B73
:1038D0009091C5038917A9F00E94771B8093C503B7
:1038E0002A960FB6F894DEBF0FBECDBFDF91CF9101
:1038F0001F910F91FF90EF90DF90CF90BF900C94AD
:103900000B142A960FB6F894DEBF0FBECDBFDF9121
:10391000CF911F910F91FF90EF90DF90CF90BF90CC
:103920000895CF93DF93CDB7DEB72B970FB6F894FA
:10393000DEBF0FBECDBF4F83588769877A878B87DD
:10394000DE01119686E0FD0111928A95E9F785E086
:10395000FE01379601900D928A95E1F749815A81CF
:103960006B817C818D819E810E9417232B960FB6DF
:10397000F894DEBF0FBECDBFDF91CF910895FC015B
:10398000808191810E94ED250895882309F4C6C0A5
:103990009CEF980F913A40F4682F80918A019091A2
:1039A0008B010E94BB270DC090E2980F983058F40D
:1039B000877091E001C0990F8A95EAF7892F0E94DC
:1039C0002F260C947A269BE5980F933070F4853A55
:1039D00029F0863A31F083E890E005C081E890E074
:1039E00002C082E890E00C949C1B98E5980F9731F8
:1039F00008F08EC0883A09F445C0893A09F445C0F8
:103A00008A3A09F445C08B3A09F445C08C3A09F466
:103A100045C08B3B09F445C08C3B09F445C08D3A49
:103A200009F445C0803B09F445C08E3A09F445C00D
:103A30008F3A09F445C0813B09F445C0823B09F443
:103A400045C0833B09F445C0843B09F445C0853B30
:103A500009F445C0863B09F445C0873B09F445C0DD
:103A6000883B09F445C0893B09F445C08D3B09F406
:103A700045C08E3B09F445C08A3B09F445C080E04F
:103A800090E044C082EE90E041C089EE90E03EC0FC
:103A90008AEE90E03BC085EB90E038C086EB90E08A
:103AA00035C083EB90E032C084EB90E02FC087EB11
:103AB00090E02CC08CEC90E029C08DEC90E026C00A
:103AC00083E891E023C08AE891E020C082E991E098
:103AD0001DC084E991E01AC081E292E017C083E240
:103AE00092E014C084E292E011C085E292E00EC040
:103AF00086E292E00BC087E292E008C08FE690E099
:103B000005C080E790E002C08AE292E00C94B21B0C
:103B1000803F20F00E9456290C94432A0895882360
:103B200089F19CEF980F913A40F4682F80918A01B7
:103B300090918B010E94BD270DC090E2980F9830A4
:103B400058F4877091E001C0990F8A95EAF7892FA0
:103B50000E9435260C947A269BE5980F933020F42A
:103B600080E090E00C949C1B98E5980F973120F42E
:103B700080E090E00C94B21B803F20F00E94BE29B0
:103B80000C94432A0895CF93C82F0E94C51CC933B3
:103B900049F42FEF87EE93E0215080409040E1F709
:103BA00000C000008C2FCF910C948F1D882321F032
:103BB0000E942F260C947A260895882321F00E94D3
:103BC00035260C947A260895CF92DF92EF92FF92D9
:103BD0000F931F93CF93DF937C01062FC72FFC0118
:103BE000158112951F70D281D1110E944C260E941E
:103BF0002526882379F0DD2369F080E2800F883064
:103C000048F082E00E94C4260E94252691E0D82E2A
:103C1000D92601C0D12CCC2EC2948FE0C8228C2D85
:103C200090E0FC01EB57FF4F0C94BB318C2F807F51
:103C3000CF70882311F0C295C07FDD2399F0CC238B
:103C400009F4A6C180E2800F883010F0011104C091
:103C50008C2F0E942F2603C08C2F0E943F260E948B
:103C60007A2696C1802F0E948F1DCC2309F4B5C1FE
:103C700080E2800F883010F0011104C08C2F0E9468
:103C8000352603C08C2F0E9445260E947A26A5C1A6
:103C90008C2F807FCF70803211F0C295C07F0023BF
:103CA00019F00130C9F022C0DD2371F0112341F079
:103CB000113031F40E945F268C2B0E9467268DC143
:103CC0000E945F268C2B1DC0112319F0113009F4BE
:103CD00084C10E94702625C0DD2321F0163008F033
:103CE0007CC10EC0153008F078C11BC0DD2361F027
:103CF000112331F0F701858180FF4AC18F708583E0
:103D00008C2F0E94D61D69C1112359F0093309F087
:103D100050C1FFEF27EE83E0F15020408040E1F7F3
:103D200046C18C2F0E94DD1D58C1DD23F9F0053FEF
:103D300051F0063F71F0043FA9F48091C8049091BE
:103D4000C90481600BC08091C8049091C90482604D
:103D500005C08091C8049091C90484609093C904FF
:103D60008093C804802F0E9456291EC0053F51F041
:103D7000063F71F0043FA9F48091C8049091C904F2
:103D80008E7F0BC08091C8049091C9048D7F05C0BF
:103D90008091C8049091C9048B7F9093C90480934B
:103DA000C804802F0E94BE290E94432A1EC18C2F66
:103DB000837009F045C0D11114C1402F429546953A
:103DC0004770440F440F602F6F70862F90E0A0E083
:103DD000B0E0042E04C0880F991FAA1FBB1F0A94CD
:103DE000D2F704FF10C00FE010E020E030E004C084
:103DF000000F111F221F331F4A95D2F7009510950F
:103E00002095309503C000E010E09801C695C69556
:103E1000C370BC01CD01602B712B822B932BC23060
:103E200049F058F4C13019F00E946824DAC00E94A9
:103E30005624D7C00E947A24D4C00E945424D1C0F2
:103E4000DD2319F08C2F817001C08695882309F439
:103E5000C8C0402F429546954770440F440F602FCD
:103E60006F70862F90E0A0E0B0E0042E04C0880FB1
:103E7000991FAA1FBB1F0A94D2F704FF10C00FE0BE
:103E800010E020E030E004C0000F111F221F331F9C
:103E90004A95D2F7009510952095309503C000E023
:103EA00010E09801C695C695C370BC01CD01602B8A
:103EB000712B822B932BC23049F058F4C13019F08A
:103EC0000E942D258EC00E941B258BC00E943F257D
:103ED00088C00E948E2485C0CF70DD2339F08C2FDE
:103EE0000E94B424802F0E94D61D7BC0802F0E9488
:103EF000DD1D8C2F0E94D52474C0023F01F128F4EF
:103F0000003F41F0013FA1F03FC0033FF9F0043F03
:103F100039F13AC0DD2341F0153008F05EC08C2F36
:103F20008F710E94FA2459C0163008F056C0F7CF9E
:103F3000DD2339F08C2F8F710E94B4244EC0DD2315
:103F4000C9F38C2F8F710E94D52447C0DD2329F03F
:103F50008C2F8F710E949F2440C00E949A243DC0E4
:103F6000DD2349F0CF718C2F0E94B42463E08C2FA5
:103F70000E94AF2632C081E00E94C426123068F150
:103F800082E00E94C42629C0DD2331F0112391F282
:103F9000802F0E94C51C21C0112399F2093349F4D6
:103FA0009FEFE7EEF3E09150E040F040E1F700C012
:103FB0000000802F0E948F1D10C04C2F4F70602F6B
:103FC000C7010E948D140E94C5230FC04C2F4F7053
:103FD000602FC7010E94901408C088EF8C0D8430B8
:103FE00020F40E94771B0E940B14DD20C9F00E9470
:103FF000212680FD15C0F70112820E941B260E9417
:10400000B424C7010E9419200E941B26DF91CF9182
:104010001F910F91FF90EF90DF90CF900C94D524DB
:10402000DF91CF911F910F91FF90EF90DF90CF9094
:1040300008950F931F93CF93DF93EC0198818981AB
:104040002B813C81232B31F08F3F31F481E09F3F66
:1040500019F403C081E001C080E080FD13C0CE01EF
:104060000E942A14882371F0688179818A810E94D4
:10407000F8258C010E9451250E944224B801CE01EE
:104080000E94E41DDF91CF911F910F910895882325
:1040900021F00E943F260C947A260895882321F06F
:1040A0000E9445260C947A2608950E944C260E9470
:1040B0005C260E947A260E94E92A0C94432A809169
:1040C0008A0190918B010E94BF270C9455200E9479
:1040D0003C260C945F20E92FE295EF704E2F50E0C4
:1040E000FA013297EE30F105B0F4EB56FF4F0C9425
:1040F000BB31803F91F018F4883E68F40EC0843FD5
:1041000051F40BC0883E48F0813F29F406C093FB70
:10411000882780F9089580E0089581E008950E943D
:10412000ED250E946B200895CF93DF9300D000D03F
:104130001F92CDB7DEB70F900F900F900F900F909A
:10414000DF91CF910895CF93DF9300D000D000D0BE
:10415000CDB7DEB726960FB6F894DEBF0FBECDBF43
:10416000DF91CF9108951F93CF93DF93C091CF0339
:1041700016E08091D003C81799F0D0E01C9FF001A1
:104180001D9FF00D1124EF52FC4F4081518162813F
:104190007381848195810E94A3202196C770E9CF05
:1041A000DF91CF911F910895409101045091020435
:1041B00060910304709104048091050490910604B9
:1041C0000C94A320CF938091060482958F7009F000
:1041D0005FC080910304882309F45AC08091CF0303
:1041E000B091D00370910104A091020440910404A5
:1041F0005091050491E07F3F09F090E0692FC6E0FF
:104200008B1709F445C04115510521F0AF3F21F04E
:1042100020E003C021E001C0262F90E020FD35C042
:10422000C89FF001C99FF00D1124EF52FC4F21816E
:104230002A132BC02081271328C02281211125C0D9
:10424000238134812417350710F421503109241BB0
:10425000350B24363105C8F4209106042F702061F7
:104260002093060426E0289FF001299FF00D1124D9
:10427000EA52FC4F80818F708061808381E094E0FE
:104280000E941920CF910C94B32001968770B8CF6B
:10429000CF910895AF92BF92CF92DF92EF92FF92AB
:1042A0000F931F93CF93DF93CDB7DEB761970FB610
:1042B000F894DEBF0FBECDBF7C0185E0F701DE01C3
:1042C0001D9601900D928A95E1F7D7014C911196B8
:1042D0005C91119712960C91309101046091020447
:1042E0008091040490910504009731F06F3F31F400
:1042F00021E03F3F19F403C021E001C020E0B22FCC
:10430000B170BB2E20FD40C1F701C380D480A090C6
:104310000304AA2009F4F6C020910604C816D906A1
:1043200028F0D601A81BB90BCD0104C0809590954B
:104330008C0D9D1D11E08436910580F010E0207FEA
:1043400009F0A6C07C2DD98AC88A602F89890E946D
:10435000942081E094E00E9419200EC1822F807F7A
:1043600009F053C0561314C0431312C0102F01118B
:104370000FC02F702061209306040E94D42081E09A
:1043800094E00E94192080910604F70185833DC1C5
:10439000CD2831F05F3F31F481E04F3F19F403C085
:1043A00081E001C080E080FD03C081E0802702C081
:1043B00080E090E0182F117080FF1CC08091CF0327
:1043C0002091D00336E0821709F4FCC090E0389FBA
:1043D000F001399FF00D1124EF52FC4F618156130B
:1043E00006C06081461303C06281061303C00196B4
:1043F0008770E9CF102F002309F407C180910604CC
:1044000081608093060410E000C1561314C043136A
:1044100012C0011110C080910604F7018583C70105
:104420000E94192086E0F701A1E0B4E001900D920E
:104430008A95E1F7C4C04D875E878D859E850E9471
:104440008F20882379F1002369F120910604822FBF
:1044500082958F7090E0029774F0809101049091A2
:10446000020498878F831986DB86CA862C87CE0143
:1044700007960E94192086E0F701A1E0B4E00190C0
:104480000D928A95E1F70E94E2200E94D4200DC08F
:10449000561769F04D875E878D859E850E948F2017
:1044A000811119C0C7010E94192011E0AEC0431349
:1044B000F1CF0111EFCF80910604F7018583C70189
:1044C0000E94192086E0E1E0F4E0DF011D928A9568
:1044D000E9F71A2D9AC0002329F320910604822FB0
:1044E00082958F7090E0029734F280910104909150
:1044F00002049A8389831B82DD82CC822E83CE01C3
:104500000196B7CFC816D90628F0F601E81BF90BBB
:10451000CF0104C0809590958C0D9D1D843691052A
:1045200048F010E07C2DD98AC88A602F89890E94C2
:10453000942022C0102F002309F4B4CF56130BC0CF
:10454000431309C086E0F701A1E0B4E001900D92A9
:104550008A95E1F75AC04D875E878D859E850E94BA
:104560008F20811188CF809106048160809306049A
:10457000C7010E94192049C0E1E0F4E086E0DF01B4
:104580001D928A95E9F71BC0002309F48BCF4D8754
:104590005E878D859E850E948F20182F882309F4C1
:1045A00081CF86E0F701A1E0B4E001900D928A95F9
:1045B000E1F781E094E00E94BF1C0E94E2200E948B
:1045C000D42023C04D875E878D859E850E94ED2572
:1045D000292F22952F70223028F49F7039F08111F5
:1045E00005C00BC0243028F49F7049F4805E8830E9
:1045F00020F0C7010E941920B12E1B2D06C0D70143
:1046000015969C91907F91F7F8CF812F61960FB608
:10461000F894DEBF0FBECDBFDF91CF911F910F91F8
:10462000FF90EF90DF90CF90BF90AF9008951F93D1
:10463000CF93DF93CDB7DEB72C970FB6F894DEBFDC
:104640000FBECDBF4F83588769877A878B879C873A
:10465000CE0107960E944A218823D1F09F81888548
:104660002A853B85232B31F08F3F31F481E09F3F3A
:1046700019F403C081E001C080E080FD47C04F8194
:10468000588569857A858B859C850E94A3203EC0CC
:1046900086E0FE013796DE01119601900D928A9513
:1046A000E1F7FF81E8856A857B856115710531F049
:1046B000EF3F31F481E0FF3F19F403C081E001C016
:1046C00080E080FD23C02091D00330E0C901019635
:1046D000877099274091CF0350E084179507F1F137
:1046E000F983EA837D836C8396E0929FD001939F48
:1046F000B00D1124AF52BC4FFE01319601900D92C6
:104700009A95E1F78093D0030E94B32016E0809140
:10471000CF039091D003891771F1189FC001112424
:104720008F529C4F0E944A21882329F1E091CF03A8
:104730001E9FF0011124EF52FC4F40815181628194
:104740007381848195810E94A3208091CF0390E0A2
:104750000196877099278093CF03D9CF0E94672055
:104760001092D0031092CF03E1E0F4E086E0DF0185
:104770001D928A95E9F72C960FB6F894DEBF0FBE0E
:10478000CDBFDF91CF911F910895EF92FF920F93CC
:104790001F93CF93DF938C01892B09F46CC0F12C0C
:1047A000EE24E394E8012196F8018491843740F4E3
:1047B000843008F051C0813081F0823019F15BC043
:1047C000853709F444C0A8F19CE7980F903708F0AA
:1047D00052C08F770E948F1D41C00E5F1F4FFE0198
:1047E000849190E2980F983050F48770FE2D01C0AC
:1047F000FF0F8A95EAF78F2F0E944F2614C00E9460
:10480000C51C2DC00E5F1F4FFE01849190E2980FD2
:10481000983060F48770FE2D01C0FF0F8A95EAF78B
:104820008F2F0E9455260E947A2619C00E948F1D44
:1048300016C00E5F1F4FFE01C491CC2381F08FE99B
:104840009FE00197F1F700C00000C150F6CF0E5F66
:104850001F4FFE01F49003C00E94C51C8E018F2DD6
:10486000882309F49FCFEFE9FFE03197F1F700C00B
:1048700000008150F5CFDF91CF911F910F91FF90F4
:10488000EF900895089508950C9443240C944424C3
:104890000E9446246093290470932A0480932B0479
:1048A00090932C040C9455200C9448240F931F9340
:1048B0000091290410912A0420912B0430912C049A
:1048C000602B712B822B932B1F910F910C944824FA
:1048D0000F931F930091290410912A0420912B0417
:1048E00030912C0460237123822393231F910F9115
:1048F0000C9448240F931F930091290410912A04CB
:1049000020912B0430912C04602771278227932754
:104910001F910F910C9448240C9443240E948C24E2
:1049200060932504709326048093270490932804B1
:104930000C94552060E070E0CB010C948E240F9312
:104940001F9341E050E060E070E08A019B0104C0E9
:10495000000F111F221F331F8A95D2F7C901B8011A
:104960001F910F910C948E240F931F9341E050E000
:1049700060E070E004C0440F551F661F771F8A95E2
:10498000D2F78091250490912604A0912704B0913C
:1049900028048A019B01082B192B2A2B3B2BC901C8
:1049A000B8011F910F910C948E240F931F9341E037
:1049B00050E060E070E004C0440F551F661F771F91
:1049C0008A95D2F740955095609570958091250411
:1049D00090912604A0912704B09128048A019B019C
:1049E000082319232A233B23C901B8011F910F91E2
:1049F0000C948E240F931F9341E050E060E070E030
:104A000004C0440F551F661F771F8A95D2F7809107
:104A1000250490912604A0912704B09128048A01CE
:104A20009B01082719272A273B27C901B8011F9195
:104A30000F910C948E240F931F93009125041091D5
:104A400026042091270430912804602B712B822B9F
:104A5000932B1F910F910C948E240F931F93009111
:104A60002504109126042091270430912804602306
:104A70007123822393231F910F910C948E240F9303
:104A80001F93009125041091260420912704309152
:104A9000280460277127822793271F910F910C9478
:104AA0008E240895292F220F920F990F890FE82F36
:104AB000E695E695E695877051E001C0550F8A9519
:104AC000EAF785E0E89FF0011124E95FFB4F20E061
:104AD00030E070E04081CB01022E02C096958795B0
:104AE0000A94E2F781708195842785238427819336
:104AF0002F5F3F4F2530310569F70895292F220F89
:104B0000920F990F890F682F669566956695982F75
:104B1000977085E0689FB001112440E050E080E08C
:104B2000FB01E40FF51FE95FFB4F208130E0092E08
:104B300002C0369527950A94E2F721703327042E98
:104B400001C0220F0A94EAF7822B4F5F5F4F453076
:104B5000510531F70895BF92CF92DF92EF92FF9205
:104B60000F931F93CF93DF938C01C0902504D090B7
:104B70002604E0902704F090280480912904909165
:104B80002A04A0912B04B0912C04C82AD92AEA2A1D
:104B9000FB2ACFE1D0E0D701C6010C2E04C0B695A8
:104BA000A795979587950A94D2F780FD04C0219721
:104BB00090F7B12C07C0BC2EB8018C2F0E9499141D
:104BC0000197A9F38B2DDF91CF911F910F91FF904A
:104BD000EF90DF90CF90BF900895CF93DF93EC01DB
:104BE0000E94AB25BE010E949914DF91CF910895D8
:104BF0001F93CF93DF93EB019091CE03992321F084
:104C0000CB010E94ED2513C0882349F0CB010E94FF
:104C1000AB25182F682FCE010E94522504C0CB016E
:104C20000E947E25182FBE01812F0E949914DF91CA
:104C3000CF911F91089580912D0485958595859537
:104C4000089580912D048770089590912D04977098
:104C500081E009F480E008958091390408959091ED
:104C60003904892B809339040895809590913904F3
:104C700089238093390408951092390408959091FE
:104C80003804892B809338040895809590913804D6
:104C900089238093380408951092380408959091E0
:104CA0003704892B809337040895809590913704B9
:104CB00089238093370408951092370408958091D2
:104CC0002E04089508950C9462260C946326909106
:104CD0002E04981721F080932E040C9465260895D5
:104CE00080912E04882329F010922E0480E00C94E9
:104CF00065260895E0918A01F0918B018091390435
:104D00008083E0918A01F0918B0190818091380439
:104D1000892B8083E0918A01F0918B0190818091B1
:104D20003704892B808380912E04882381F0E091C1
:104D30008A01F0918B019081892B808380918A0177
:104D400090918B010E94882781110E94702680918A
:104D50008A0190918B010C94831B0C94622698E03D
:104D6000899F90011124262B20932D040E94B424A6
:104D700080912D048595859585950C94AD2610928E
:104D80002D0480E00C94AD2620912D048095822383
:104D900080932D04982F977079F430E0482F082ED7
:104DA000000C550B2417350739F0859585958595A9
:104DB0000E94D5240C94BF26089580E090E00E94C4
:104DC000BF3421E08C3E9E4F09F020E0822F0895F1
:104DD00082E090E00C94B13483E090E00C94B13424
:104DE000CF9384E090E00E94B134C82F81E290E03C
:104DF0000E94B1342C2F30E0A901582BCA01CF9169
:104E00000895CF93C92F682F84E090E00E94C534A5
:104E10006C2F81E290E0CF910C94C534AB01BC01C2
:104E20008FE090E00C94D73483E190E00C94B93497
:104E3000AB01BC0183E190E00C94D73460E070E0FA
:104E4000CB010C94182760E070E0CB010E940E2784
:104E50000C941E276CEE7EEF80E090E00E94E3341D
:104E600060E082E090E00E94C53460E083E090E082
:104E70000E94C5341092290410922A0410922B0427
:104E800010922C0460E084E090E00E94C53460E061
:104E900081E290E00E94C53460E085E090E00E94ED
:104EA000C53460E086E090E00E94C5346FEF87E093
:104EB00090E00E94C53440E050E0BA0188E090E004
:104EC0000E94D73460E08DE090E00E94C53440E05D
:104ED00050E0BA0188E190E00E94D73460E087E1B9
:104EE00090E00E94C53440E050E0BA018CE190E0CF
:104EF0000E94D73460E080E290E00E94C5340C94B8
:104F000023270C942A27682F8EE090E00C94C53458
:104F1000FC01329697E080E0915029F02191222304
:104F2000D9F38F5FF9CF08959C01FC0132969FEF72
:104F300080E04191461789F09F3F19F4411101C06B
:104F4000982F8F5F8630A9F79F3F39F0F901E90F5D
:104F5000F11D97FDFA956283089508959C012A5FDB
:104F60003F4FFC014281461301C012820196821715
:104F70009307B9F708950C9494270C94AE270296E2
:104F800026E0FC0111922A95E9F7089508950C9402
:104F9000C6270C94C627CF930E94C9270E94CC0A2B
:104FA0000E94C727C0E08C2F0E94350B811104C0DE
:104FB000CF5FC830C1F701C081E0CF9108950C9454
:104FC000C6270C94DF270E94E1278091D404843007
:104FD00049F110923B0420E488E190E00FB6F89488
:104FE000A895809360000FBE2093600080E00E942F
:104FF0000B140E94E12783B7817F846083BF83B74E
:10500000816083BF7894889583B78E7F83BF0FB606
:10501000F894A89580916000886180936000109258
:1050200060000FBE08950C94C6270E9467200E945E
:10503000771B0E940B140C9413281F920F920FB62B
:105040000F9211248F939F93AF93BF9380913B0452
:10505000811113C08091CA049091CB04A091CC041B
:10506000B091CD044196A11DB11D8093CA049093C7
:10507000CB04A093CC04B093CD04BF91AF919F918A
:105080008F910F900FBE0F901F90189582E084BDF6
:1050900093E095BD9AEF97BD80936E0008952FB76A
:1050A000F8948091CA049091CB04A091CC04B09163
:1050B000CD042FBF0895CF92DF92EF92FF920F930E
:1050C0001F932FB7F8944091CA045091CB0460917C
:1050D000CC047091CD042FBF6A017B01EE24FF2424
:1050E0008C0120E030E0C016D106E206F30610F491
:1050F000415051099A01281B390BC9011F910F9189
:10510000FF90EF90DF90CF90089578941F920F92C8
:105110000FB60F9211248F939F93AF93BF938091FB
:10512000CA049091CB04A091CC04B091CD04019617
:10513000A11DB11D8093CA049093CB04A093CC040D
:10514000B093CD04BF91AF919F918F910F900FBEFF
:105150000F901F90189587E797E790930108809329
:1051600000089AE088E10FB6F894A8958093600053
:105170000FBE90936000FFCF0E94DD26811102C018
:105180000E9481270E94E82680933A040E94F0261C
:105190009093CF048093CE040E94EC26682F70E099
:1051A00080E090E00C94542480913F0480FF0BC079
:1051B00060918F0185E0689FB00111247595679516
:1051C000759567952BC081FF09C060918F0185E0BF
:1051D000689FB00111247595679520C082FF07C0B4
:1051E00060918F0185E0689FB001112417C09091F4
:1051F0003E049923D1F060918E01961788F7209193
:105200008F0185E0289F90011124929FA001939F18
:10521000500D112470E0CA010E94A7316038710559
:1052200040F46115710519F406C065E070E0862F41
:1052300008958FE7089581E0089580913F0480FFED
:1052400008C060918D0170E07595679575956795BB
:1052500021C081FF06C060918D0170E07595679552
:1052600019C082FF04C060918D0170E010C0909160
:105270003E04992399F060918C019617A0F78091D4
:105280008D01899FC001112470E00E94A731603810
:10529000710540F46115710519F406C061E070E014
:1052A000862F08958FE7089581E00895803F21F4C7
:1052B0000E94D428819504C0813F29F40E94D428FB
:1052C000809343040895823F21F40E94D42881955D
:1052D00004C0833F29F40E94D42880934204089597
:1052E000893F19F40E941D2905C08A3F31F40E94AC
:1052F0001D2981958093440408958B3F21F40E94D9
:105300001D29819504C08C3F29F40E941D2980939A
:1053100045040895843F21F480914104816017C0C1
:10532000853F21F480914104826011C0863F21F4C1
:105330008091410484600BC0873F21F48091410437
:10534000886005C0883F31F480914104806180937A
:10535000410408958D3F21F480913F0481600BC08A
:105360008E3F21F480913F04826005C08F3F29F475
:1053700080913F04846080933F040895803F39F416
:105380008091430487FF6CC01092430469C0813F41
:1053900029F4809143041816BCF362C09091420432
:1053A000823F29F497FF5CC01092420459C0833FAA
:1053B00019F41916CCF354C0893F41F48091440488
:1053C00018160CF04DC0109244044AC08A3F29F4CC
:1053D0008091440487FF44C0F6CF8B3F39F480911D
:1053E000450487FF3DC0109245043AC08C3F29F424
:1053F000809145041816BCF333C0843F21F480919A
:1054000041048E7F17C0853F21F4809141048D7F38
:1054100011C0863F21F4809141048B7F0BC0873FF0
:1054200021F480914104877F05C0883F31F4809149
:1054300041048F7E8093410413C08D3F21F48091FD
:105440003F048E7F0BC08E3F21F480913F048D7FFF
:1054500005C08F3F29F480913F048B7F80933F04E8
:105460008091420481110EC08091430481110AC0D1
:1054700080914404811106C080914504811102C0CD
:1054800010923E04089580E494E00E948E1B0E94D6
:105490004F2890933D0480933C0408951F93CF932D
:1054A000DF9380913C0490913D040E945B28AC0105
:1054B00090913E04992321F02091900130E006C0A4
:1054C000209191018AE0289F9001112442175307EF
:1054D00008F47BC080914204C0914304D0914404FD
:1054E00010914504811107C0C1116BC0D11169C071
:1054F000111167C06AC09F3F19F09F5F90933E04EF
:10550000181624F40E94D428809342048091420407
:1055100087FF05C00E94D4288195809342041C1601
:1055200024F40E94D428809343048091430487FF8D
:1055300005C00E94D4288195809343043091420491
:105540003323E1F0209143042223C1F045EB3403DF
:10555000C0011124992319F09093420403C081E003
:105560008093420435EB2303C0011124992319F0E1
:105570009093430403C081E0809343041D1624F4F8
:105580000E941D29809344048091440487FF05C034
:105590000E941D29819580934404111624F40E94D1
:1055A0001D29809345048091450487FF05C00E9412
:1055B0001D29819580934504DF91CF911F910C9413
:1055C000432A9F3F09F099CFAACFDF91CF911F9136
:1055D0000895E0E4F4E086E0DF011D928A95E9F7A2
:1055E00010923E0410923F04089580914E04089555
:1055F0000895CF93DF93EC010E94D82C823011F0F4
:105600008430F9F482E08093E9008FEF9091E80014
:10561000815095FD06C095ED9A95F1F70000811136
:10562000F5CF8091E80085FF0CC040E050E066E0D7
:1056300070E0CE010E94F52C8091E8008E77809377
:10564000E800DF91CF910895CF93DF93EC010E94A2
:10565000D82C823011F0843039F581E08093E90054
:105660008FEF9091E800815095FD06C095ED9A95D9
:10567000F1F700008111F5CF8091E80085FF14C09B
:1056800040E050E068E070E0CE010E94F52C80918F
:10569000E8008E778093E80088E0FE01A6E4B4E09D
:1056A00001900D928A95E1F7DF91CF9108950895C9
:1056B0008091D304811109C00E94862E0E94E32E9E
:1056C0008091E20084608093E20008951092D304F8
:1056D0000895089508950C94152842E061EC81E046
:1056E0000E94FF2D42E261EC82E00C94FF2D80913C
:1056F000D604833009F460C030F4813071F0823018
:1057000009F499C008958A3009F485C08B3009F4F2
:105710006BC0893009F0A7C020C08091D504813AC0
:1057200009F0A1C08091E800877F8093E800809114
:10573000D9049091DA04892B21F468E086E494E09E
:1057400003C060E080E090E070E00E94402D809116
:10575000E8008B778093E80008958091D50481322A
:1057600009F081C08091D9049091DA04029708F081
:105770007AC08091E800877F8093E8008091E800FC
:1057800082FD05C08091D4048111F8CF6CC02091B6
:10579000F3008091F20090E0922B029729F480911F
:1057A000F1008B7F813021F48091F10080934E04D1
:1057B0008091E8008B7753C08091D504813A09F03D
:1057C00052C08091D9049091DA04892B09F04BC022
:1057D0008091E800877F8093E8008091E80080FF57
:1057E000FCCF80919C0136C08091D5048132D9F5DF
:1057F0008091D9049091DA04892BA9F58091E80071
:10580000877F8093E8000E94342E8091D704809394
:105810009C010C9467208091D504813221F5809100
:10582000E800877F8093E8000E94342E8091D8049E
:1058300080934F0408958091D504813AA1F480911A
:10584000E800877F8093E8008091E80080FFFCCF2C
:1058500080914F048093F1008091E8008E778093CF
:10586000E8000C94342E089584B7877F84BF0FB668
:10587000F894A895809160008861809360001092F0
:1058800060000FBE80E880936100109261000E946A
:10589000D81B0E94862E0E94E32E8091E200846035
:1058A0008093E20078940E9478310E94E01B82E9A4
:1058B00091E00E94721B8091D404853069F40E94AB
:1058C000E3278091D2048823B1F30E94CB27882359
:1058D00091F30E94DF2CEFCF0E94E81BECCF0C94D9
:1058E000712C292F332723303105C9F060F4213082
:1058F000310581F02230310509F04AC08BE390E098
:1059000020E13DE049C02132310511F1223231055B
:1059100079F13EC082E190E02BE43DE03DC0992763
:105920008130910561F040F08230910559F0039784
:1059300079F5E4ECFCE008C0ECE0FDE005C0EAEF3E
:10594000FCE002C0EAECFCE0849190E09F0124C0FE
:105950006115710541F061307105D1F489E090E085
:105960002BE33DE019C089E090E022E23DE014C065
:105970006115710541F06130710551F48FE490E0DB
:105980002DE53DE009C080E490E02CEA3DE004C054
:1059900080E090E020E030E0FA0131832083089538
:1059A0008091D404843011F081E0089582E008955C
:1059B00080915004811102C00C94D02C089580E194
:1059C00089BD82E189BD09B400FEFDCF8091D80078
:1059D0008F7D8093D8008091E00082608093E0000A
:1059E0008091E00081FDFCCF0895CF92DF92EF928D
:1059F000FF920F931F93CF93DF93EC018B017A01FA
:105A00000E94532E811133C0E114F10439F0F701E3
:105A100080819181081B190BC80FD91FC12CD12C73
:105A20000115110519F18091E80085FD16C08091DE
:105A3000E8008E778093E800E114F10449F0F70163
:105A400080819181C80ED91ED182C08285E00FC0AD
:105A50000E94532E882321F30AC089918093F1007C
:105A600001501109FFEFCF1ADF0ADACF80E0DF9192
:105A7000CF911F910F91FF90EF90DF90CF900895FD
:105A80002091DB043091DC042617370748F06115BC
:105A9000710539F42091E8002E772093E80001C0C9
:105AA000B901FC0120E06115710579F18091D40400
:105AB0008823F1F18530F1F18091E80083FD3CC04D
:105AC0008091E80082FD2EC08091E80080FFEBCF3E
:105AD0002091F3008091F20090E0922B6115710506
