:100000000C9447040C948E040C948E040C948E046F
:100010000C948E040C948E040C948E040C948E0418
:100020000C948E040C948E040C94A5280C947729BF
:100030000C94AD210C948E040C948E040C948E04BC
:100040000C948E040C948E040C948E040C948E04E8
:100050000C948E040C9415220C948E040C948E0433
:100060000C948E040C948E040C948E040C948E04C8
:100070000C948E040C948E040C948E040C948E04B8
:100080000C948E040C948E040C948E040C948E04A8
:100090000C948E040C948E040C948E040C948E0498
:1000A0000C948E040C948E040C948E047806FF0637
:1000B000FF06FF06FF06FF06FF064B065606FF0675
:1000C000FF06FF06FF064806FF06FF06FF06FF06BF
:1000D000FF06FF06FF06FF06FF0667066A066F06B5
:1000E00072067506490A610A2D0A2A0A1C0A1C0AA8
:1000F000310A350A400A400A400A400A380A380ADA
:10010000380A380A450A450A450A6E166E16A016C0
:10011000A0164518ED16451845182F17C417D51702
:10012000D5173518451845183E18D118D118E318B9
:10013000E318DA18E318E318E318D118D118DF1818
:10014000E318E318DF18E4290B2A032B0B2A032BEF
:10015000572A7A2A032BD12AE02A02E26003E2001E
:100160002F00000034000000E40000000400000044
:100170000500A10006009100070097000800940008
:1001800009008D000A0092000B0024000C002F00D3
:100190000D0009000E001D000F00001010002A00C5
:1001A00011001B00120023001300000814000000BF
:1001B00015008E001600900017008F0018001A001E
:1001C0001900A0001A008A001B009F001C002C00D0
:1001D0001D0000002D0038003600250037003200D9
:1001E000380000002F00000034000000E400000090
:1001F0000400360005000004060031000700190065
:1002000008002E000900000E0A0027000B009E00C7
:100210000C008C000D0098000E008B000F002201D6
:1002200010009300110020011200960013001F011E
:10023000140000021500000C160005001700300025
:1002400018009500190028001A0008001B003D0046
:100250001C001E011D0000062D00000036002101BB
:100260003700A200380000002F003A0034000000E0
:10027000E400000004000700050021000600110052
:10028000070017000800140009000D000A00120002
:100290000B001E000C000C000D0018000E000B00DF
:1002A0000F000600100013001100260012001600B7
:1002B00013003A0014003B0015000E001600100059
:1002C00017000F0018001500190020001A000A007E
:1002D0001B001F001C002D001D0003FF2D00370018
:1002E00036001C0037002200380003FF61756F00E4
:1002F000677A64206220202076006B73746E686DCC
:1003000079727700616975656F0004050607080951
:100310000A0B0C0D0E0F10111213141516171819C5
:100320001A1B1C1D2D363738041B0D0837180C07F7
:10033000060B17111005150F3813121C0A0E361470
:10034000092D161A191D040506160917070B181191
:10035000080C100E1C2D1413150A0F191A1B0D1D55
:100360001236373814001A00080015001700000074
:100370001C0018000C0012001300040016000700F7
:1003800009000A0000000B000D000E000F00095DBF
:100390001D001B00060019000500E10011001000FF
:1003A0000A5D0B5D0C5D2B442843010001002A42CD
:1003B0002C002841E400E600E70005511E001F0064
:1003C0002000210022000000230024002500260038
:1003D000270033000E5D0F5D340035000000500033
:1003E000510052004F00290001002F003000010091
:1003F0000100010034002E003602370231000100F6
:100400000100010001000451010001000100010090
:10041000010001001E021F02200221022202000030
:100420002302240225022602270287008800890071
:100430008A008B0000002A004C0028002B002900B5
:1004400001000100010001000100010001000100A4
:100450000100010001000100010001000100010094
:100460000100035101000100010001003A003B00BE
:100470003C003D003E0000003F00400041004200C3
:10048000430033022F023002340235020000900094
:100490009100920093009400E100E300E200E40088
:1004A000010001002C00E400E600E700E500055132
:1004B0000100010001000100010001000100010034
:1004C000010001000100000000003900530000009D
:1004D0000000000000000000000001000100145DA9
:1004E000155D010000004A004E004B004D00010068
:1004F000E100E300E200E400010001002C00E40060
:10050000E600E700E50001000551010001000100DF
:10051000010001000100010001000100005C000079
:100520000000165D175D0000225D205D215D00006A
:100530000000135D1F5D1E5D1D5D1C5D0000235DE1
:10054000245D000000000000125D1B5D1A5D195D56
:10055000185DE00000000000000000000000E30063
:10056000E70001000100E200E400E60001000100F4
:100570000100010000000000000000000000000079
:100580000000000000000000000000000000F50076
:10059000F400F6000000F200F100F000F3000000AB
:1005A0000000FB00F900FA00FC0001000000FD0063
:1005B000FE00FF0000000100010001000100010039
:1005C0000100010001000100010001000000000025
:1005D000000000002A2B280000000000000000009E
:1005E0000000000000000029000000002C1E342044
:1005F000212224342627252E362D3738271E1F206A
:100600002122232425263333362E37381F040506AE
:100610000708090A0B0C0D0E0F10111213141516F2
:100620001718191A1B1C1D2F3130232D35040506F0
:100630000708090A0B0C0D0E0F10111213141516D2
:100640001718191A1B1C1D2F3130354C00000000E3
:10065000000000000000000000000000000000009A
:10066000000000000000000000000000000000008A
:10067000000000000000000000000000000000007A
:10068000000000000000000000000000000000006A
:10069000000000000000000000000000000000005A
:1006A000000000000000000000000000000000004A
:1006B000000000000000000000000000000000003A
:1006C000000000000000000000000000000000002A
:1006D000000000000000000000000000000000001A
:1006E0000000000000000000000000000001010107
:1006F00001010100010101010000000000000000F3
:1007000000000000000001000100010101010101E1
:1007100001010101010101010101010101010101C9
:1007200001010101010101000000010100000000C0
:1007300000000000000000000000000000000000B9
:10074000000000000000000101010100040330006E
:1007500000000E0341007400720065007500730014
:1007600000000E03500072006F0066006500740008
:1007700000000403090409023B00020100A0320941
:1007800004000001030101000921110100012240C0
:10079000000705810308000A0904010001030000A5
:1007A00000092111010001228A00070582032000AF
:1007B0000A1201100100000008EDFE626001000154
:1007C00002030105010902A10185020901A1000539
:1007D0000919012905150025019505750181029565
:1007E00001750381010501093009311581257F95C6
:1007F000027508810609381581257F9501750881E4
:1008000006050C0A38021581257F950175088106B9
:10081000C0C005010906A1018505050719E029E702
:10082000150025019508750181020507190029EFBA
:100830001500250195F075018102050819012905AA
:10084000950575019102950175039101C005010996
:1008500006A101050719E029E7150025019508758E
:100860000181029501750881010507190029FF150D
:100870000026FF0095067508810005081901290565
:10088000950575019102950175039101C000112430
:100890001FBECFEFDAE0DEBFCDBF04B603FE27C038
:1008A0008091A2039091A303A091A403B091A5030A
:1008B0008730904BA740B04BD1F41092A203109216
:1008C000A3031092A4031092A50314BE84B7877FDC
:1008D00084BF0FB6F894A8958091600088618093DA
:1008E0006000109260000FBEE0E0F8E3099512E0AE
:1008F000A0E0B1E0EEE5F7E502C005900D92AC395D
:10090000B107D9F723E0ACE9B2E001C01D92A23AE9
:10091000B207E1F70E94D8250C94AD2B0C9400008F
:10092000089581E0089580E0089561157105A9F0AA
:1009300080910F0190911001862B972B90931001BD
:1009400080930F018091110190911201682B792BF6
:1009500070931201609311010CC0452B61F020913E
:100960000D0130910E01232B31F490930E018093F1
:100970000D0181E0089580E00895813E910559F0D0
:10098000853E910511F08C9719F480E090E8089568
:1009900080E090E0089580E090E40895292F221FE0
:1009A0002227221F220F84E0989F812D992711244E
:1009B0008170820F823039F08330E1F0813031F084
:1009C00088E692E005C080E691E002C084EE91E006
:1009D0009C012C573F4FFC014591549146175707F6
:1009E00029F4FC0132968591949108950496281774
:1009F000390789F780E090E00895CF93DF9300975F
:100A000041F0EC010E94CF0ACE010E94E50A81E08C
:100A100001C080E0DF91CF9108959C01861B970B68
:100A20006217730708F001970895EF92FF921F93E2
:100A3000CF93DF93EC017B01FB0112810E94DF2148
:100A40009E01305421153A4108F46FC0209709F4F3
:100A500050C0F70122812223B1F1409183035091CC
:100A600084032091810330918203C417D50789F054
:100A70008217930728F0AC01421B530B9A0104C064
:100A800020953095280F391F2639310560F42FEF56
:100A900017C08217930750F0FC01E21BF30B9F0174
:100AA0002C32314050F010927A0323C020953095BB
:100AB000280F391F2C323140B0F720917A032F5F75
:100AC00020937A0316C020917F0330918003C217D0
:100AD000D30741F520918103309182038217930758
:100AE000E0F0FC01E21BF30B9F013093870320939E
:100AF0008603112349F0D0938003C0937F03909322
:100B00007E0380937D0311C0D0938403C09383033D
:100B1000909382038093810308C020953095280F1D
:100B2000391FE3CF10928503E4CF81E0DF91CF91AD
:100B30001F91FF90EF9008958091270190E0880F1A
:100B4000991FFC01EF57FD4F20813181FC01E957CE
:100B5000FD4F80819181009711F48AE093E090939A
:100B60009E0280939D023093A00220939F020895DD
:100B7000833008F080E08093270108959C01245081
:100B800031092A31310510F484501AC08A302DE51C
:100B9000920779F028F489302DE5920781F00895C5
:100BA0008B302DE5920739F08C302DE5920729F036
:100BB00008958BE105C08CE103C08DE101C08AE19D
:100BC000E0919D02F0919E02E80FF11D849190E06A
:100BD0000895CF93DF939C012450310926333105CA
:100BE00028F025503D452430310520F4DF91CF9188
:100BF0000C94BE059C0130562115304240F021E096
:100C0000AC0150544115504118F020E001C021E0E2
:100C100020FF07C0EC0199270E94BE05CC278C2B32
:100C20009D2BDF91CF9108950C94E9052CE2829FD2
:100C3000C0011124FC012BE0729FE00DF11D112475
:100C4000E60FF11DEE0FFF1FEC59FC4F85919491BB
:100C50000C941406CF92DF92EF92FF920F931F93A2
:100C6000CF93DF9300D000D01F92CDB7DEB70097AF
:100C700009F4C5C0FC0181159F4FE8F1E150FF4F19
:100C8000EC31F10508F0BBC0EA5AFF4F0C945F2B22
:100C90008AE290E021C081EE90E00E94CF0A88E3D2
:100CA00090E00E94CF0A88E390E00AC081EE90E0D5
:100CB0000E94CF0A8EE190E00E94CF0A8EE190E080
:100CC0000E94E50A81EE90E00E94E50A96C085E365
:100CD00090E002C081E990E00E94FD048EC08BE8A4
:100CE00090E0FACF8AE890E0F7CF88E890E0F4CF80
:100CF00080E491E080C0ADEEB1E080E090E02D9125
:100D00003C911197E217F30779F4880F991F880F28
:100D1000991FDC01A351BE4F12968D919C911397A0
:100D2000009709F068C005C00196149685329105B8
:100D300031F77F01E894E7F8FF24C70165E070E030
:100D40000E94372B462FCF0188279E71892F992724
:100D50008695582F8E010F5F1F4F6230E0F04EEFE7
:100D6000460FE078F170E038F10531F0E115F1401F
:100D700041F420E729830BC0E42FF0E0E051FD4F60
:100D800004C0E42FF0E0E650FD4FE491E9839E01BA
:100D90002E5F3F4F01C09801511111C06901BFEF93
:100DA000CB1ADB0AC70165E070E00E94372BFC011B
:100DB000EC5FFC4FE491D901EC93960116C05630DC
:100DC000A0F0411105C04CE6F90140832F5F3F4F71
:100DD00049E7D9014C93A9014E5F5F4FFC01EA51ED
:100DE000FD4FE4911196EC939A010217130739F025
:100DF000F9011082C8010E94A60B81E001C080E0C9
:100E00000F900F900F900F900F90DF91CF911F9147
:100E10000F91FF90EF90DF90CF900895E4E0F1E024
:100E2000128211821286118614861386108A178602
:100E300016861586148A138A0895CF93C82F0E94A8
:100E40000E07C0930401CC2361F08AE093E09093F5
:100E50009E0280939D0284E491E09093A00280938F
:100E60009F02CF91089580939C02882339F18DEBE6
:100E700094E090931A01809319018EEC94E0909382
:100E80001C0180931B0183E994E090931E018093E1
:100E90001D0181E00E941D078AE093E090939E026D
:100EA00080939D0281E591E09093A00280939F0240
:100EB0008DE790E0909308018093070108950F93C8
:100EC0001F93CF93DF9300D0CDB7DEB70097E9F142
:100ED0008C0180911701909118010F3F2FEF12079D
:100EE00071F10038110521F0011521E0120719F404
:100EF000802B912B24C0009729F4109318010093A4
:100F0000170123C0E0911D01F0911E01AE014F5F5A
:100F10005F4FB8010995811107C080911701909129
:100F200018019A83898302C000E010E089819A81C8
:100F30000E942A06009317011093180106C00E9410
:100F40002A0610921801109217010F900F90DF914E
:100F5000CF911F910F910895CF93DF9360910D0171
:100F600070910E0120910F013091100180911101BB
:100F700090911201E0911B01F0911C01822B932BA7
:100F80000995EC0120910F013091100134FD06C04C
:100F9000809111019091120194FF02C0C06802C0BB
:100FA00035FDD16036FF0BC0809113019091140183
:100FB00084E0989F812D99271124817001C080E0E1
:100FC00037FF06C090911401991F9927991F01C0FE
:100FD00090E0209731F480FD02C0992311F0C9E31D
:100FE000D0E0CE010E945F0710920E0110920D0119
:100FF0001092100110920F0110921401109213011F
:1010000081E0CD2B09F480E0DF91CF910895AF927C
:10101000BF92CF92DF92EF92FF920F931F93CF93E5
:10102000DF937C01EB01D0900401D11002C081E07C
:10103000BDC08091150190911601009759F001975C
:101040009093160180931501892B21F48FEF9FEF68
:101050000E945F07E114F10451F3CA800E94DF216E
:101060005C01E0911901F0911A01C7010995EC01A9
:10107000E0911B01F0911C01B70180911101909149
:10108000120109958C018038910509F46EC0811513
:10109000914009F46DC091E0209721F401151105EC
:1010A00009F490E090FF5DC08091050190910601E8
:1010B000CC2049F1C11520E4D20759F0C11520E830
:1010C000D20739F0892B09F05BC0B0920C01A092D5
:1010D0000B01809105019091060101969093060104
:1010E00080930501A801BE01C7010E949504D82E76
:1010F000811138C00E94AC07A801BE01C7010E943F
:101100009504DC2C2FC00197909306018093050174
:10111000CE0180959095209111013091120182238A
:101120009323909312018093110180911301909168
:101130001401C82BD92BD0931401C09313010E9422
:10114000AC078091070190910801009729F48FEF77
:101150009FEF0E945F0706C09093160180931501D0
:1011600001C0D12C81E08D2521C0C0E0D0E102C0BA
:10117000C0E0D0E2E12CF12C00E010E091E092CF51
:1011800060910B0170910C01C5010E940D05209129
:10119000090130910A012817390708F09ACFB09257
:1011A0000C01A0920B010E94AC0793CFDF91CF916D
:1011B0001F910F91FF90EF90DF90CF90BF90AF9075
:1011C000089520919C0221110C94070881E0089554
:1011D000CF93C82F0E949C05EFE1F1E0C6830190F8
:1011E000F081E02D0190F081E02D8C2FCF910994BA
:1011F0008370E82FF0E0EE0FFF1FEB51FE4F808170
:1012000091819093200180931F01089580E00C94B8
:10121000E80890912301911106C0662371F08AE5D8
:1012200091E00C94E30B882311F080E901C081E97F
:1012300061110C9495140C94B3150895CF93C1E0EB
:101240008C2F0E94131ECF5FC031D1F780E00E9427
:10125000F21D0E94060980E0CF910C94E808EFE1AE
:10126000F1E064817085818597810C945720CF933C
:101270000E945320C72FEFE1F1E0648370878187DC
:1012800097830E94F8088C2F0E94B8050E940609D7
:1012900080E0CF910C94E808DF92EF92FF920F93D9
:1012A0001F93CF93DF93EC017B01FB01D2800E945F
:1012B0001505182F882309F403C1F70182818111D4
:1012C0006DC080918303909184038932910589F4E4
:1012D00080918603909187038137F7E19F0718F08B
:1012E0000E94110CEEC0893B9B4020F10E941E0918
:1012F000E8C088309D45F1F49091250180917A03F2
:10130000823041F0833041F0813009F0DAC001E0F1
:10131000992319F000E001C001E061E0802F0E94F4
:10132000090960E0802F0E9409090E940609802FA8
:101330000E94E80880917A03813019F08230D1F060
:101340002DC080918303909184038B7F823E910511
:1013500029F5C1E0809125018111C0E061E08C2F69
:101360000E94090960E08C2F0E9409090E94060969
:101370008C2F11C08091830390918403899771F41D
:1013800061E080E00E94090960E080E00E940909B4
:101390000E94060980E00E94E80893C08091250120
:1013A000811105C080912401813071F02CC0E09141
:1013B0001F01F09120010280F381E02DB701CE01E1
:1013C00009958111EFCF7CC0CE018F9787309105B1
:1013D00070F4FC01E252FE4F8081882341F0DD2051
:1013E00019F00E9495146CC00E94B31569C0DD20ED
:1013F000C1F0CE30FDE5DF0709F45BC0CF302DE54D
:10140000D20779F459C0DD2061F0CE308DE5D807E0
:1014100009F452C0CF30EDE5DE0719F48CE591E018
:101420004DC0FE01E051FD45E331F10508F049C032
:10143000EE58FF4F0C945F2B11E0C531DD4509F0EC
:1014400010E0812F0E94E808F7016281812F0E943D
:10145000090925C01092240122C081E08093240153
:101460001EC081E0809326011AC01092260117C089
:101470008C2F8C510E94F80881E00E94E8080FC070
:101480008C2F88510E94B8050AC0C052C093230116
:1014900006C080919F029091A0020E94A60BC0916D
:1014A00025010E9406098C2F0E94E8080E942F093E
:1014B00007C08AE591E002C088E591E00E94A60B92
:1014C00010E0812FDF91CF911F910F91FF90EF904E
:1014D000DF9008950E9406090E94370980E091E09C
:1014E0009093200180931F0108950C946A0A0C9434
:1014F0004C090F931F93CF93DF9300D000D000D0FF
:10150000CDB7DEB78E010F5F1F4F86E0F801119255
:101510008A95E9F78FEF89838A830E94DF218160B2
:101520009D838C83B80180E090E00E94770A269624
:101530000FB6F894DEBF0FBECDBFDF91CF911F91E4
:101540000F9108959C013A9521153F4138F5DC0132
:10155000AA27B270AC01442754709C01222738702E
:1015600094FF0FC090FF02C080E101C080E0AB2B70
:1015700009F08062452B09F08064232B69F08068B4
:101580000BC0892F8170AB2B09F08260452B09F0CD
:101590008460232B09F08860FB0109940895CF93A0
:1015A000DF93EC01805E9109089710F0209719F401
:1015B0006EE276E102C06FE978E1CE010E94A20AF4
:1015C0008C2FDF91CF910C949514CF93DF93EC0186
:1015D0000E94B315CE01805E9109089710F0209704
:1015E00019F465E376E102C066EA78E1CE01DF91A5
:1015F000CF910C94A20ACF93DF93EC010E94CF0A03
:10160000CE01DF91CF910C94E50A81E008950C940E
:10161000770A1F93CF93DF9300D000D01F92CDB7EE
:10162000DEB749835A836B832091C70289819A81EF
:10163000211112C0662349F00E94E71E182F682F5F
:1016400089819A810E94901E03C00E94BB1E182FA0
:1016500069817A81812F04C00E94E71E69817A81A5
:101660000F900F900F900F900F90DF91CF911F91DF
:101670000C941606FC014081518162817381848142
:101680000C94090B1F93CF93DF9390E0FC01E4537C
:10169000FA4F1491FC01E453F94FD491FC01E45B3F
:1016A000F94FC491DD2319F081EE0E949514CC23EB
:1016B00019F086EE0E949514812F0E941B16CC23F0
:1016C00019F086EE0E94B315DD2331F081EEDF9133
:1016D000CF911F910C94B315DF91CF911F91089575
:1016E000FF920F931F93CF93DF93EC01F62E888127
:1016F000882331F18E010F5F1F4F813031F4C98192
:101700008C2F0E9495148C2F0AC0823029F4898175
:101710000E949514E80108C0833021F489810E9459
:10172000B315F8CF0E94420B21968F2D8823F9F232
:10173000EFE9FFE03197F1F700C000008150F6CFEC
:10174000DF91CF911F910F91FF90089560E00C946D
:10175000700B0F931F93CF93DF93EC01062FFE01C5
:101760008491882359F19E012F5F3F4F813041F4CE
:10177000E901F9011491812F0E949514812F0DC068
:10178000823031F4E901F90184910E9495140AC074
:10179000833031F4E901F90184910E94B31502C04C
:1017A0000E94420B2196802F8823C9F2EFE9FFE0C7
:1017B0003197F1F700C000008150F6CFDF91CF9153
:1017C0001F910F91089560E00C94A90B0E941C20BA
:1017D000811102C00E94C0200E94A4100C942D0F01
:1017E0000C942F0F282F2F7041F0822F90E02A3079
:1017F00010F44D9608950697089587E290E00895B5
:1018000008950C94000C81E008950C94030CCF9380
:10181000C82F0E94010C8C2F0E94050CCF910895B7
:1018200008950E94BF180E94100C2FEF84E39CE0E3
:10183000215080409040E1F700C0000087E797E723
:1018400090930108809300080C943B220F931F9300
:10185000CF93DF93EC010E943A0B8C01BE010E94F2
:10186000070B882309F456C0BE01C8010E94181155
:10187000882309F44FC0BE01C8010E94C11188230A
:1018800009F448C0BE01C8010E940212882309F46D
:1018900041C08A81882371F001158CE5180739F061
:1018A0000E3D8CE5180731F40E94C02033C00E9421
:1018B000110C30C006311C4531F50E94681F982F6D
:1018C0008A8120912D0130912E01882379F09A7A16
:1018D00081E009F480E08093A102911102C069E2E5
:1018E00001C065E3C9010E942D210AC08091A102B7
:1018F000811102C069E201C065E3C9010E9438217B
:101900000E94B91F07C0CE01DF91CF911F910F91A7
:101910000C94050B80E0DF91CF911F910F910895FA
:1019200080E090E008950895880F991FFC01E45B22
:10193000F84F859194910895CF93DF930E941606F6
:101940000E94560EEC018115904508F041C0C1156A
:1019500080E4D80708F028C1C83ED10510F5C03E84
:10196000D10508F09FC1C83AD10578F4C53AD10530
:1019700008F0A2C0C130D10509F494C108F445C1F2
:10198000C430D10508F08EC140C1CF3BD10508F469
:101990009EC0C03CD10508F438C1CE01805C9109DD
:1019A000F5C0C11590E2D90758F4C11521E0D2075E
:1019B00008F078C1C03FD10508F427C1D06572C1D5
:1019C000C11580E3D80708F0E5C0CE019F70DEC0E6
:1019D000C11595E5D90708F043C0C11524E5D20724
:1019E00008F0F9C0C11582E5D80708F5C11591E5E1
:1019F000D90708F0DCC0CE0174E0969587957A95FA
:101A0000E1F783709C2F937021E030E002C0220F39
:101A1000331F9A95E2F73C68382BCF70C695C69570
:101A200080E2C89FE0011124C22BD32B3BC19E0151
:101A3000237033278C2F86958695C115D34508F0E2
:101A4000BBC0C1E0D0E002C0CC0FDD1F2A95E2F799
:101A500020E2829FC0011124C82BD92BDC6822C14F
:101A6000C11529E5D207A0F4C11588E5D80708F00B
:101A7000B7C0C11596E5D90708F0C7C08C2F0E94E2
:101A8000EA0E8F71C82FD0E0DC2FCC27D0620AC1BC
:101A9000C1152AE5D20708F4A8C0CE0190568115D9
:101AA000904208F0B2C08D2F8F710E94EA0EDD27A0
:101AB000D0628F71D82BF6C0C53AD10509F4A8C001
:101AC000C63AD10509F0A7C0C2E8D0E4EBC0C83AD5
:101AD000D10509F4A3C0C93AD10509F4A2C0CA3A94
:101AE000D10509F4A1C0CB3AD10509F4A0C0CC3A84
:101AF000D10509F49FC0CB3BD10509F49EC0CC3B76
:101B0000D10509F49DC0CD3AD10509F49CC0C03B74
:101B1000D10509F49BC0CE3AD10509F49AC0CF3A59
:101B2000D10509F499C0C13BD10509F498C0C23B65
:101B3000D10509F497C0C33BD10509F496C0C43B55
:101B4000D10509F495C0C53BD10509F494C0C63B45
:101B5000D10509F493C0C73BD10509F492C0C83B35
:101B6000D10509F491C0C93BD10509F490C0CD3B22
:101B7000D10509F48FC0CE3BD10509F48EC0CA3B14
:101B8000D10509F48DC0C0E0D4E48CC00E94940C4F
:101B9000EC0188C0CE019927D3FF03C0EC01D86CBB
:101BA00081C0EC01D06C7EC0DF70D06A7BC0DC2FBE
:101BB000CC27C16FD06A76C0C1E0D0E002C0CC0FA4
:101BC000DD1F2A95E2F720E2829FC0011124C82B75
:101BD000D92BDA6867C0DC2FCC27C46FD06A62C00B
:101BE000DC2FCC27C06FD06A5DC08C2F8F700E9415
:101BF000EA0E94E0D695C7959A95E1F7CF70D0E0BC
:101C0000DC2FCC27D069C82B4DC0C0E0D0E04AC043
:101C1000C1E8D0E447C0C3E8D0E444C0C2EED4E495
:101C200041C0C9EED4E43EC0CAEED4E43BC0C5EB2B
:101C3000D4E438C0C6EBD4E435C0C3EBD4E432C03E
:101C4000C4EBD4E42FC0C7EBD4E42CC0CCECD4E478
:101C500029C0CDECD4E426C0C3E8D5E423C0CAE84B
:101C6000D5E420C0C2E9D5E41DC0C4E9D5E41AC05A
:101C7000C1E2D6E417C0C3E2D6E414C0C4E2D6E49D
:101C800011C0C5E2D6E40EC0C6E2D6E40BC0C7E27E
:101C9000D6E408C0CFE6D4E405C0C0E7D4E402C06F
:101CA000CAE2D6E4CE01DF91CF9108958238910542
:101CB00069F1B0F48133910509F46DC048F48932BB
:101CC000910509F463C08A32910509F469C0089549
:101CD0008533910509F455C089339105B9F008950C
:101CE000833E910569F138F4803E9105B1F0823E62
:101CF000910509F10895863E9105A9F1873E910568
:101D0000B9F1843E910509F064C023C0209193038A
:101D100020FD4FC021FD4DC008958091930380FDAB
:101D200044C08091940380FF44C08091930384FD5C
:101D300042C083EE4DC08091930382FF38C0F5CF3F
:101D40008091930382FD33C08091940380FD31C064
:101D5000ECCF8091940381FF32C08091930384FD86
:101D60002AC087EE35C08091930383FF26C0F5CF4C
:101D70008091930383FD21C08091940381FD1FC056
:101D8000ECCF8091930385FD1CC01DC0809193030F
:101D900085FD19C016C08091930386FD16C017C03B
:101DA0008091930386FD13C010C089E311C082EEB9
:101DB0000FC080EE0DC080E00BC086EE09C084EE3F
:101DC00007C089E205C085E303C08AE201C081E360
:101DD00090E008959091930392FF0DC0282F2871F1
:101DE000283019F4877F846006C0282F247124309E
:101DF00011F48B7F886093FF0DC0282F2871283144
:101E000019F4877E846106C0282F2471243111F4CF
:101E10008B7E88612091940320FF0DC0382F38718C
:101E2000383019F4877F816006C0382F3171313026
:101E300011F48E7F886021FF0DC0282F2871283172
:101E400019F4877E816106C0282F2171213111F498
:101E50008E7E886194FD877E08950C94750A0C949B
:101E6000790AE82FF0E0EE0FFF1FEE55FD4F80815D
:101E7000918108950895CF93DF93ADE8B2E048E9EA
:101E800052E061E070E08D91E82FE295EF70F0E0B4
:101E900021A18F70EB0102C0CC0FDD1F8A95E2F704
:101EA000CE019C2F9095922391A392A1892B82A37E
:101EB0004A175B0741F7A8E9B2E041E050E08D9195
:101EC000E82FE295EF70F0E021A18F70BA0102C017
:101ED000660F771F8A95E2F7CB01962F9095922394
:101EE00091A392A1892B82A372E0AC39B70739F78D
:101EF0001092AB021092AA021092A3021092A202B8
:101F00001092AD021092AC021092A5021092A4029F
:101F10001092AF021092AE021092A7021092A60287
:101F20001092B1021092B0021092A9021092A8026F
:101F300084E00E945410DF91CF910C94E60B2F9215
:101F40003F924F925F926F927F928F929F92AF9249
:101F5000BF92CF92DF92EF92FF920F931F93CF9396
:101F6000DF9300D000D0CDB7DEB76DE872E080E03F
:101F700090E0198201E010E032EB432E32E0532E64
:101F8000DB012D91BD01E22FE295EF70F0E031A170
:101F90002F70580101C0AA0C2A95EAF7232F2A298D
:101FA00021A322A13A2C3094232122A3B0EABA958E
:101FB000F1F77801082E02C0EE0CFF1C0A94E2F73C
:101FC00037016094709428E9C22E22E0D22E2AEACA
:101FD00032E03C832B83212C8B809C80D4012D917B
:101FE0003C91D6014D916D014A8342954F7050E06E
:101FF000DA0190964C9150E0BA81BF7002C05595BD
:102000004795BA95E2F740FD05C0A9014E295F2921
:10201000D40105C0A90146215721AB81BC814D9354
:102020005C934B815C814E5F5F4F5C834B83D4013B
:102030004D915C912417350711F0222423942B81B4
:102040003C814216530641F621A1322231A222A13F
:10205000A22AA2A239813229398301968B309105B7
:1020600009F08ECF232F44E062EA72E08AEA92E020
:102070000E9455100E94F00B89810F900F900F90D5
:102080000F90DF91CF911F910F91FF90EF90DF9014
:10209000CF90BF90AF909F908F907F906F905F9008
:1020A0004F903F902F9008950895FF920F931F93A4
:1020B000CF93DF93F82E092F162FD72FC42F22236B
:1020C00049F081E08093B4020E94DF219093B30233
:1020D0008093B2028091B4028823D9F08091B20239
:1020E0009091B3020E94EB21069798F0EF2DF02F0C
:1020F000A12FBD2F80E090E04C2F50E08417950772
:1021000034F4219131912D933D930196F7CF1092A4
:10211000B402DF91CF911F910F91FF900895CF935B
:10212000DF9397FF0DC0FB012281222349F0EC01D0
:102130000E94BA10CE019F770E94FB100E94E4100B
:1021400081E0DF91CF9108958CE090E00E94652BB3
:1021500090E0A0E0B0E08093880390938903A0937F
:102160008A03B0938B030895609188038CE090E01C
:102170000C94792B0E94681F80938C030E947B1F14
:1021800080918803813071F048F0823081F0843092
:10219000A1F486EE0E941B1688E10DC082EE0E941B
:1021A00095140BC088E193E00E94FB0A06C082EE02
:1021B0000E94951487E50E941B168FE39CE9019706
:1021C000F1F700C00000089580918803813039F054
:1021D00040F0823031F0843051F488E206C08CE265
:1021E00004C082EE0E94B31502C00E941B168091AB
:1021F0008C030C94781F0F931F93CF93DF938C0164
:10220000CCE0D0E0C8010C2E02C0969587950A94C8
:10221000E2F78F700E94F20B0E941B162497CC3FAE
:102220008FEFD80779F7DF91CF911F910F91089524
:102230000F931F93CF93DF93EC018B01FB018281FE
:10224000882319F1C33EFCE5DF07C1F050F4C13E1D
:10225000ECE5DE0781F0C23EFCE5DF07B1F481E08A
:1022600010C0C43E8CE5D80759F0C53EECE5DE074A
:1022700061F484E006C01092880305C082E001C0CA
:1022800083E0809388030E94B410B801CE01DF91EF
:10229000CF911F910F910C948F100F931F93CF9399
:1022A000DF93C62FD42F122FFC0182818823C9F01F
:1022B0006093B7020E94DF219093B6028093B5022B
:1022C00080E28C0F883008F057C0C77081E001C0F1
:1022D000880FCA95EAF7DF91CF911F910F910C9467
:1022E0002E168091B702681330C08091B50290918C
:1022F000B6020E94EB218A3F910538F500E20D0FEE
:10230000CD17B9F080E28C0F883040F4C77081E0BF
:1023100001C0880FCA95EAF70E943516083028F5E3
:1023200081E09D2F977001C0880F9A95EAF70E946F
:102330002E16812F0E941B160830F0F4D77081E012
:1023400001C0880FDA95EAF70AC080E28C0F883066
:1023500098F4C77081E001C0880FCA95EAF7DF9151
:10236000CF911F910F910C943516812FDF91CF9152
:102370001F910F910C941B16DF91CF911F910F911C
:1023800008959C01CB01233F4CE53407F9F078F424
:10239000283DFCE53F07B9F0293D4CE5340711F134
:1023A000273D3C4531F526E241EE61EE1EC0253F5A
:1023B000FCE53F0799F070F0263F3C45D1F427E259
:1023C00045EE66EE12C027E245EE0EC026E241EE73
:1023D00060EE0BC027E245EE64EE07C026E241EE58
:1023E00062EE03C028E241E065EE0E944D1180E0FC
:1023F0000895FC018281882319F01092B702089594
:1024000081E008951F93CF93DF93FB011281112385
:1024100009F40FC1EC010E942F2090939403809344
:102420009303C031FCE5DF0709F4C0C008F041C0E8
:10243000C830ECE5DE0709F497C0F0F4C4308CE551
:10244000D80709F486C068F4C230FCE5DF0709F458
:1024500076C0C330DC4509F0EDC080919303826003
:1024600075C0C630ECE5DE0709F46DC008F078C031
:102470008091930388606AC0CC308CE5D80709F45A
:1024800082C068F4CA30FCE5DF0709F471C008F0C7
:1024900076C00E94BF1880919303806857C0CE30E9
:1024A000ECE5DE0709F473C008F07CC0809193036B
:1024B00088C0CB3F8CE5D80709F44EC018F5C3316E
:1024C000FCE5DF0709F47AC078F4C131ECE5DE07FA
:1024D00009F470C0C231DC4509F0ACC00E94BF18DD
:1024E000809193038F7732C0C5318CE5D80709F40A
:1024F0006FC008F485C0CA3FDC4509F09BC08091DD
:1025000094033BC0CF3F8CE5D80709F45CC050F47E
:10251000CD3FFCE5DF0709F441C0E8F18091940369
:1025200082602BC0C130EDE5DE0709F475C008F408
:102530005BC0C230DD4509F07DC080E06EC0809197
:102540009303816003C08091930380618093930320
:1025500066C0809193030FC08091940382604DC048
:10256000809193038062F2CF809193038064EECFD9
:102570008091930388608460E9CF81603EC0809140
:1025800093038E7FE3CF809193038D7FDFCF809184
:102590009303877FDBCF8091940318C080919403CD
:1025A0008D7F2BC0809193038F7ED0CF809193033A
:1025B0008F7DCCCF809193038F7BC8CF8091930385
:1025C000877F8B7FC3CF809194038D7F8E7F15C0D3
:1025D0008091930382FB222720F991E0922790FBC0
:1025E00082F990FB83F9B2CF80919403982F909554
:1025F00091708E7F892B90FB81F9809394030FC09B
:102600000E94BF188091930387FB222720F991E055
:10261000922790FB87F99ACF81E00E94C220809197
:102620009303909194030E9440200E94BF1810E0F1
:1026300001C011E0812FDF91CF911F9108959093F8
:10264000BD028093BC020895E091BC02F091BD02EE
:10265000309721F00190F081E02D099480E00895F9
:10266000E091BC02F091BD02309799F020913F01BA
:10267000222359F02091930327FF07C0DC012C91FE
:1026800011962C93119725E02C930280F381E02D75
:1026900009940895E091BC02F091BD02309739F0A1
:1026A00022E0DC012C930480F581E02D099408954B
:1026B0002091BA023091BB022817390771F090932C
:1026C000BB028093BA02E091BC02F091BD02309748
:1026D00021F00680F781E02D099408952091B80239
:1026E0003091B9022817390771F09093B90280939D
:1026F000B802E091BC02F091BD02309721F0008455
:10270000F185E02D0994089585B7806885BF85B768
:10271000806885BF089508950C948B130C948C13D6
:102720000C948B130C948B130E9484130E949013AF
:102730000C948E1381E008950E94D6210E943B0FD5
:102740000E944C220C9492135F926F927F928F9210
:102750009F92AF92BF92CF92DF92EF92FF920F9330
:102760001F93CF93DF93CDB7DEB72A970FB6F894B8
:10277000DEBF0FBECDBF0E949F0F0E949A13811132
:1027800011C08FEF89838A831B820E94DF218160C1
:10279000782F9D838C8349815A816B818D810E9422
:1027A000611456C09FEB692E92E0792E00E010E094
:1027B00088248394912C502E802F0E94310F6C011D
:1027C000F301A190B1903F01A826B926A114B1044C
:1027D00031F40F5F1F4F0430110569F7D2CF80919C
:1027E0004B0381FD0E943A0F80E090E07401082EB7
:1027F00002C0EE0CFF1C0A94E2F795012E213F2146
:10280000232B09F18E835F82CE20DF2081E0CD284B
:1028100009F480E088870E94DF218160782F9A8701
:1028200089874E815F8168858A850E946114000FC7
:10283000111FF801E154FD4F80819181E826F926AE
:10284000F182E08205C001968B30910579F6C1CF07
:102850000E94DE230E9424139091BE028917D9F0B2
:102860000E9424138093BE022A960FB6F894DEBF0E
:102870000FBECDBFDF91CF911F910F91FF90EF90D1
:10288000DF90CF90BF90AF909F908F907F906F9090
:102890005F900C94070C2A960FB6F894DEBF0FBE1B
:1028A000CDBFDF91CF911F910F91FF90EF90DF90FF
:1028B000CF90BF90AF909F908F907F906F905F90E0
:1028C0000895CF93DF93CDB7DEB72B970FB6F8946B
:1028D000DEBF0FBECDBF4F83588769877A878B874E
:1028E000DE01119686E0FD0111928A95E9F785E0F7
:1028F000FE01379601900D928A95E1F749815A8140
:102900006B817C818D819E810E94551C2B960FB618
:10291000F894DEBF0FBECDBFDF91CF910895FC01CB
:10292000808191810E94291F0895882309F41AC18A
:102930008238C1F40E94241381FD14C169E380919F
:102940002D0190912E010E942D210E94B91F2FEF81
:1029500081EE94E0215080409040E1F700C00000FB
:1029600069E319C08338F9F40E94241380FDFAC08A
:1029700063E580912D0190912E010E942D210E94EE
:10298000B91F2FEF81EE94E0215080409040E1F795
:1029900000C0000063E580912D0190912E010E94FE
:1029A00038210C94B91F8438C1F40E94241382FD8D
:1029B000D9C067E480912D0190912E010E942D21B4
:1029C0000E94B91F2FEF81EE94E02150804090408B
:1029D000E1F700C0000067E4DECF9CEF980F913A6A
:1029E00040F4682F80912D0190912E010E942D219D
:1029F000D8CF90E2980F983050F4877091E001C0E2
:102A0000990F8A95EAF7892F0E946B1FCACF9BE521
:102A1000980F933070F4853A29F0863A31F083E8C4
:102A200090E005C081E890E002C082E890E00C945C
:102A3000581398E5980F973108F08EC0883A09F43A
:102A400045C0893A09F445C08A3A09F445C08B3A31
:102A500009F445C08C3A09F445C08B3B09F445C0E4
:102A60008C3B09F445C08D3A09F445C0803B09F41C
:102A700045C08E3A09F445C08F3A09F445C0813B00
:102A800009F445C0823B09F445C0833B09F445C0C5
:102A9000843B09F445C0853B09F445C0863B09F4F5
:102AA00045C0873B09F445C0883B09F445C0893BD4
:102AB00009F445C08D3B09F445C08E3B09F445C07F
:102AC0008A3B09F445C080E090E044C082EE90E08B
:102AD00041C089EE90E03EC08AEE90E03BC085EBBD
:102AE00090E038C086EB90E035C083EB90E032C0D8
:102AF00084EB90E02FC087EB90E02CC08CEC90E052
:102B000029C08DEC90E026C083E891E023C08AE8DC
:102B100091E020C082E991E01DC084E991E01AC0F3
:102B200081E292E017C083E292E014C084E292E076
:102B300011C085E292E00EC086E292E00BC087E20F
:102B400092E008C08FE690E005C080E790E002C008
:102B50008AE292E00C946E13803F20F00E94E622FD
:102B60000C94D3230895882309F464C0823879F43F
:102B70000E94241381FF5EC069E380912D01909132
:102B80002E010E942D210E94B91F69E310C08338D5
:102B9000B1F40E94241380FF4DC063E580912D01A4
:102BA00090912E010E942D210E94B91F63E5809112
:102BB0002D0190912E010E9438210C94B91F843868
:102BC00079F40E94241382FF35C067E480912D01BF
:102BD00090912E010E942D210E94B91F67E4E7CF3A
:102BE0009CEF980F913A10F4682FE1CF90E2980F84
:102BF000983050F4877091E001C0990F8A95EAF7F8
:102C0000892F0E94711FD9CF9BE5980F933020F434
:102C100080E090E00C94581398E5980F973120F4D9
:102C200080E090E00C946E13803F20F00E944E23D1
:102C30000C94D3230895CF93C82F0E949514C933C1
:102C400049F42FEF87EE93E0215080409040E1F768
:102C500000C000008C2FCF910C94B315882321F075
:102C60000E946B1F0C94B91F0895882321F00E94C5
:102C7000711F0C94B91F0895CF92DF92EF92FF92CB
:102C80000F931F93CF93DF937C01062FC72FFC0177
:102C9000158112951F70D281D1110E948B1F0E9445
:102CA000611F882379F0DD2369F080E2800F88308E
:102CB00048F082E00E9403200E94611F91E0D82E1C
:102CC000D92601C0D12CCC2EC2948FE0C8228C2DE5
:102CD00090E0FC01EB57FF4F0C945F2B8C2F807F13
:102CE000CF70882311F0C295C07FDD2399F0CC23EB
:102CF00009F4A6C180E2800F883010F0011104C0F1
:102D00008C2F0E946B1F03C08C2F0E947E1F0E947D
:102D1000B91F96C1802F0E94B315CC2309F4B5C109
:102D200080E2800F883010F0011104C08C2F0E94C7
:102D3000711F03C08C2F0E94841F0E94B91FA5C160
:102D40008C2F807FCF70803211F0C295C07F00231E
:102D500019F00130C9F022C0DD2371F0112341F0D8
:102D6000113031F40E949E1F8C2B0E94A61F8DC132
:102D70000E949E1F8C2B1DC0112319F0113009F4E5
:102D800084C10E94AF1F25C0DD2321F0163008F05A
:102D90007CC10EC0153008F078C11BC0DD2361F086
:102DA000112331F0F701858180FF4AC18F7085833F
:102DB0008C2F0E942E1669C1112359F0093309F096
:102DC00050C1FFEF27EE83E0F15020408040E1F753
:102DD00046C18C2F0E94351658C1DD23F9F0053FFE
:102DE00051F0063F71F0043FA9F480918D0390915A
:102DF0008E0381600BC080918D0390918E03826061
:102E000005C080918D0390918E03846090938E0312
:102E100080938D03802F0E94E6221EC0053F51F053
:102E2000063F71F0043FA9F480918D0390918E03C9
:102E30008E7F0BC080918D0390918E038D7F05C096
:102E400080918D0390918E038B7F90938E0380935E
:102E50008D03802F0E944E230E94D3231EC18C2FEE
:102E6000837009F045C0D11114C1402F4295469599
:102E70004770440F440F602F6F70862F90E0A0E0E2
:102E8000B0E0042E04C0880F991FAA1FBB1F0A942C
:102E9000D2F704FF10C00FE010E020E030E004C0E3
:102EA000000F111F221F331F4A95D2F7009510956E
:102EB0002095309503C000E010E09801C695C695B6
:102EC000C370BC01CD01602B712B822B932BC230C0
:102ED00049F058F4C13019F00E94A61DDAC00E94D2
:102EE000941DD7C00E94B81DD4C00E94921DD1C0AD
:102EF000DD2319F08C2F817001C08695882309F499
:102F0000C8C0402F429546954770440F440F602F2C
:102F10006F70862F90E0A0E0B0E0042E04C0880F10
:102F2000991FAA1FBB1F0A94D2F704FF10C00FE01D
:102F300010E020E030E004C0000F111F221F331FFB
:102F40004A95D2F7009510952095309503C000E082
:102F500010E09801C695C695C370BC01CD01602BE9
:102F6000712B822B932BC23049F058F4C13019F0E9
:102F70000E946B1E8EC00E94591E8BC00E947D1E37
:102F800088C00E94CC1D85C0CF70DD2339F08C2F06
:102F90000E94F21D802F0E942E167BC0802F0E945F
:102FA00035168C2F0E94131E74C0023F01F128F4C5
:102FB000003F41F0013FA1F03FC0033FF9F0043F63
:102FC00039F13AC0DD2341F0153008F05EC08C2F96
:102FD0008F710E94381E59C0163008F056C0F7CFC6
:102FE000DD2339F08C2F8F710E94F21D4EC0DD233E
:102FF000C9F38C2F8F710E94131E47C0DD2329F067
:103000008C2F8F710E94DD1D40C00E94D81D3DC0D5
:10301000DD2349F0CF718C2F0E94F21D63E08C2FCD
:103020000E94EE1F32C081E00E940320123068F13E
:1030300082E00E94032029C0DD2331F0112391F2A8
:10304000802F0E94951421C0112399F2093349F46D
:103050009FEFE7EEF3E09150E040F040E1F700C071
:103060000000802F0E94B31510C04C2F4F70602FAE
:10307000C7010E94900C0E94031D0FC04C2F4F707F
:10308000602FC7010E94930C08C088EF8C0D84301C
:1030900020F40E9424130E94070CDD20C9F00E9436
:1030A0005D1F80FD15C0F70112820E94571F0E940C
:1030B000F21DC7010E9471180E94571FDF91CF9126
:1030C0001F910F91FF90EF90DF90CF900C94131E03
:1030D000DF91CF911F910F91FF90EF90DF90CF90F4
:1030E00008950F931F93CF93DF93EC01988189810B
:1030F0002B813C81232B31F08F3F31F481E09F3FC6
:1031000019F403C081E001C080E080FD13C0CE014E
:103110000E94260C882371F0688179818A810E943F
:10312000341F8C010E948F1E0E94801DB801CE01A9
:103130000E943C16DF91CF911F910F910895882333
:1031400021F00E947E1F0C94B91F0895882321F05E
:103150000E94841F0C94B91F08950E948B1F0E9427
:103160009B1F0E94B91F0E9479240C94D323809145
:103170002D0190912E010E9443210C94AD180E94C4
:103180007B1F0C94B718E92FE295EF704E2F50E09B
:10319000FA013297EE30F105B0F4EB56FF4F0C9484
:1031A0005F2B803F91F018F4883E68F40EC0843F96
:1031B00051F40BC0883E48F0813F29F406C093FBD0
:1031C000882780F9089580E0089581E008950E949D
:1031D000291F0E94C3180895CF93DF9300D000D019
:1031E0001F92CDB7DEB70F900F900F900F900F90FA
:1031F000DF91CF910895CF93DF9300D000D000D01E
:10320000CDB7DEB726960FB6F894DEBF0FBECDBFA2
:10321000DF91CF9108951F93CF93DF93C091C802A0
:1032200016E08091C902C81799F0D0E01C9FF00108
:103230001D9FF00D1124E653FD4F408151816281A5
:103240007381848195810E94FB182196C770E9CF14
:10325000DF91CF911F9108954091FA025091FB02A6
:103260006091FC027091FD028091FE029091FF023C
:103270000C94FB182091C8029091C90256E02917BE
:10328000A9F030E0529FF001539FF00D1124E65356
:10329000FD4F7181761306C07081781303C072816F
:1032A000741306C02F5F3F4F2770E9CF80E0089569
:1032B00081E008958AEF90E00895FF920F931F93A5
:1032C000CF93DF938091FF0282958F7009F06FC0DA
:1032D0008091FC02882309F46AC0C091C80286E08C
:1032E000F82E8091C902C81709F461C09091FA02C2
:1032F0004091FB022091FD023091FE022115310523
:1033000031F04F3F31F481E09F3F19F403C081E079
:1033100001C080E0D0E080FD47C0FC9EF001FD9E32
:10332000F00D1124E653FD4F818184133DC080814F
:1033300089133AC08281811137C0838194818217B9
:10334000930708F401978C01021B130B4091FA02BA
:103350005091FB026091FC027091FD028091FE028F
:103360000E94090B0E945A1908171907E8F4809166
:10337000FF028F7080618093FF0286E08C9FF001D6
:103380008D9FF00D1124E153FD4F80818F7080617E
:1033900080838AEF92E00E947118DF91CF911F9194
:1033A0000F91FF900C940B192196C7709ACFDF9163
:1033B000CF911F910F91FF9008958F929F92AF929E
:1033C000BF92CF92DF92EF92FF920F931F93CF9312
:1033D000DF93CDB7DEB761970FB6F894DEBF0FBEAF
:1033E000CDBF8C0185E0F801DE011D9601900D92A4
:1033F0008A95E1F7D8019C901196EC90119712965E
:103400008C903091FA022091FB028091FD02909104
:10341000FE02009731F02F3F31F421E03F3F19F4D5
:1034200003C021E001C020E020FD0EC2F801A3800E
:10343000B480F090FC02FF2009F47BC1A816B90605
:1034400020F06501C81AD90A05C0809590956C01D5
:10345000CA0CDB1C4091FA025091FB026091FC0205
:103460007091FD028091FE020E94090B0E945A1980
:103470002091FF02207FC816D90608F00FC1909155
:10348000FA023091FB024091FD025091FE0221119F
:10349000A2C0452B31F03F3F31F481E09F3F19F44A
:1034A00003C081E001C080E080FD19C0E31217C0B5
:1034B000991215C0F82C811012C08091FF028F70F4
:1034C00080618093FF020E942C198AEF92E00E9493
:1034D00071188091FF02D80115968C93D2C140914A
:1034E000FA025091FB026091FC027091FD02809102
:1034F000FE020E94090B0E945A19843F9140E8F095
:10350000A114B10439F0EFEFEE1206C081E09E1273
:1035100003C003C081E001C080E080FD03C081E002
:10352000882502C080E090E080FF07C0482D6E2D06
:10353000892D0E943A198111BCC0AB2839F0BFEF28
:10354000EB1206C081E09B1203C003C081E001C002
:1035500080E080FD03C081E0882502C080E090E02B
:10356000E82FE170DE2E80FF2CC0482D6E2D892DB6
:103570000E943A19F82E811124C09D86EE868D8511
:103580009E850E94291F292F22952F70223018F026
:10359000243090F405C09F7059F0811109C071C1A9
:1035A0009F7031F0D80115969C91907F09F469C104
:1035B000805E883008F465C1C8010E947118FD2C36
:1035C00060C1F82C882009F45CC18091FF02816001
:1035D0008093FF027BC0452B31F03F3F31F481E007
:1035E0009F3F19F403C081E001C080E080FD0AC064
:1035F000E31208C0991206C0811004C08091FF0236
:10360000F801EAC09D86EE868D859E850E94E718AA
:103610008823F1F18820E1F12091FF02822F829529
:103620008F7090E0029774F08091FA029091FB0203
:1036300098878F831986BB86AA862C87CE0107962A
:103640000E94711886E0F801AAEFB2E001900D9295
:103650008A95E1F70E945D190E942C191CC0909177
:10366000FA022091FB024091FD025091FE02452B8F
:1036700079F12F3F79F581E09F3F61F580FF2CC004
:103680009D86EE868D859E850E94E718811139C042
:10369000C8010E947118FF24F394F3C02111DFCFF9
:1036A0007A2DB98AA88A492D5E2D682D89890E94B4
:1036B000EC188AEF92E00E947118EAEFF2E086E0DF
:1036C000DF011D928A95E9F70E942C19F12CD9C0CF
:1036D00081E0D4CF80E0D2CFE212D2CF9912D0CF06
:1036E0008110CECF8091FF02F8018583C8010E942E
:1036F000711886E0EAEFF2E0DF011D928A95E9F7A2
:10370000C0C0882029F22091FF02822F82958F70FD
:1037100090E002970CF496CF8091FA029091FB0210
:103720009A8389831B82BD82AC822E83CE0101964F
:1037300087CFA816B90620F06501C81AD90A05C0B6
:10374000809590956C01CA0CDB1C4091FA02509157
:10375000FB026091FC027091FD028091FE020E94CA
:10376000090B0E945A19C816D90608F05CC0F82C3B
:10377000882009F48DCF9091FA022091FB024091AC
:10378000FD025091FE02452B31F02F3F31F481E0D4
:103790009F3F19F403C081E001C080E080FD32C08A
:1037A000E21230C099122EC02091FF0220FD21C0EC
:1037B000822F82958F70482F50E041155105C9F036
:1037C000F80125834F30510541F08F5F982F929576
:1037D000907F822F8F70892B8583C8010E9471187A
:1037E00086E0F801AAEFB2E001900D928A95E1F728
:1037F00046C086E0F801AAEFB2E001900D928A95EA
:10380000E1F73FC09D86EE868D859E850E94E71874
:10381000811118CF8091FF0281608093FF02C8015F
:103820000E9471182EC07A2DB98AA88A492D5E2D62
:10383000682D89890E94EC18EAEFF2E086E0DF014A
:103840001D928A95E9F71BC0882009F421CF9D8637
:10385000EE868D859E850E94E718F82E882309F450
:1038600017CF86E0F801AAEFB2E001900D928A9599
:10387000E1F78AEF92E00E948F140E945D190E9486
:103880002C198F2D61960FB6F894DEBF0FBECDBFF9
:10389000DF91CF911F910F91FF90EF90DF90CF902C
:1038A000BF90AF909F908F9008951F93CF93DF9319
:1038B000CDB7DEB72C970FB6F894DEBF0FBECDBFE5
:1038C0004F83588769877A878B879C87CE010796B5
:1038D0000E94DD198823D1F09F8188852A853B8548
:1038E000232B31F08F3F31F481E09F3F19F403C067
:1038F00081E001C080E080FD47C04F815885698527
:103900007A858B859C850E94FB183EC086E0FE016F
:103910003796DE01119601900D928A95E1F7FF81AD
:10392000E8856A857B856115710531F0EF3F31F4DB
:1039300081E0FF3F19F403C081E001C080E080FD19
:1039400023C02091C90230E0C901019687709927F0
:103950004091C80250E084179507F1F1F983EA839A
:103960007D836C8396E0929FD001939FB00D1124CC
:10397000A653BD4FFE01319601900D929A95E1F745
:103980008093C9020E940B1916E08091C8029091A1
:10399000C902891771F1189FC001112486539D4FE8
:1039A0000E94DD19882329F1E091C8021E9FF001D1
:1039B0001124E653FD4F40815181628173818481DE
:1039C00095810E94FB188091C80290E00196877053
:1039D00099278093C802D9CF0E94BF181092C902BC
:1039E0001092C802EAEFF2E086E0DF011D928A95AC
:1039F000E9F72C960FB6F894DEBF0FBECDBFDF916E
:103A0000CF911F910895EF92FF920F931F93CF9341
:103A1000DF938C01892B09F46CC0F12CEE24E39424
:103A2000E8012196F8018491843740F4843008F04D
:103A300051C0813081F0823019F15BC0853709F4C3
:103A400044C0A8F19CE7980F903708F052C08F77D8
:103A50000E94B31541C00E5F1F4FFE01849190E29A
:103A6000980F983050F48770FE2D01C0FF0F8A9593
:103A7000EAF78F2F0E948E1F14C00E9495142DC04C
:103A80000E5F1F4FFE01849190E2980F983060F412
:103A90008770FE2D01C0FF0F8A95EAF78F2F0E94D5
:103AA000941F0E94B91F19C00E94B31516C00E5F63
:103AB0001F4FFE01C491CC2381F08FE99FE0019755
:103AC000F1F700C00000C150F6CF0E5F1F4FFE019E
:103AD000F49003C00E9495148E018F2D882309F461
:103AE0009FCFEFE9FFE03197F1F700C00000815070
:103AF000F5CFDF91CF911F910F91FF90EF90089537
:103B0000089508950C94811D0C94821D0E94841DBB
:103B100060932203709323038093240390932503DF
:103B20000C94AD180C94861D0F931F9300912203E3
:103B3000109123032091240330912503602B712BD6
:103B4000822B932B1F910F910C94861D0F931F9323
:103B50000091220310912303209124033091250327
:103B600060237123822393231F910F910C94861D50
:103B70000F931F930091220310912303209124039C
:103B80003091250360277127822793271F910F917A
:103B90000C94861D0C94811D0E94CA1D60931E0307
:103BA00070931F0380932003909321030C94AD180E
:103BB00060E070E0CB010C94CC1D0F931F9341E0AB
:103BC00050E060E070E08A019B0104C0000F111F0B
:103BD000221F331F8A95D2F7C901B8011F910F9197
:103BE0000C94CC1D0F931F9341E050E060E070E017
:103BF00004C0440F551F661F771F8A95D2F7809126
:103C00001E0390911F03A0912003B09121038A010C
:103C10009B01082B192B2A2B3B2BC901B8011F91A3
:103C20000F910C94CC1D0F931F9341E050E060E086
:103C300070E004C0440F551F661F771F8A95D2F7A6
:103C4000409550956095709580911E0390911F034B
:103C5000A0912003B09121038A019B01082319231D
:103C60002A233B23C901B8011F910F910C94CC1D4D
:103C70000F931F9341E050E060E070E004C0440FF8
:103C8000551F661F771F8A95D2F780911E0390916A
:103C90001F03A0912003B09121038A019B010827F3
:103CA00019272A273B27C901B8011F910F910C94AE
:103CB000CC1D0F931F9300911E0310911F032091A1
:103CC000200330912103602B712B822B932B1F91AA
:103CD0000F910C94CC1D0F931F9300911E03109114
:103CE0001F0320912003309121036023712382233D
:103CF00093231F910F910C94CC1D0F931F93009150
:103D00001E0310911F03209120033091210360278F
:103D10007127822793271F910F910C94CC1D089532
:103D20002BE0929F800D1124E82FE695E695E6950D
:103D3000877051E001C0550F8A95EAF785E0E89F4A
:103D4000F0011124E050FD4F20E030E070E04081B0
:103D5000CB01022E02C0969587950A94E2F78170F6
:103D6000819584278523842781932F5F3F4F2530BA
:103D7000310569F708952BE0929F800D1124682F7B
:103D8000669566956695982F977085E0689FB00157
:103D9000112440E050E080E0FB01E40FF51FE0500B
:103DA000FD4F208130E0092E02C0369527950A94F8
:103DB000E2F721703327042E01C0220F0A94EAF79C
:103DC000822B4F5F5F4F4530510531F70895BF9209
:103DD000CF92DF92EF92FF920F931F93CF93DF93D7
:103DE0008C01C0901E03D0901F03E0902003F09040
:103DF00021038091220390912303A0912403B09189
:103E00002503C82AD92AEA2AFB2ACFE1D0E0D70124
:103E1000C6010C2E04C0B695A795979587950A9470
:103E2000D2F780FD04C0219790F7B12C07C0BC2EBB
:103E3000B8018C2F0E949C0C0197A9F38B2DDF9168
:103E4000CF911F910F91FF90EF90DF90CF90BF9097
:103E50000895CF93DF93EC010E94E71EBE010E94FC
:103E60009C0CDF91CF9108951F93CF93DF93EB01CB
:103E70009091C702992321F0CB010E94291F13C002
:103E8000882349F0CB010E94E71E182F682FCE012E
:103E90000E94901E04C0CB010E94BB1E182FBE01C1
:103EA000812F0E949C0CDF91CF911F9108958091EA
:103EB00026038595859585950895809126038770BD
:103EC000089590912603977081E009F480E00895A9
:103ED00080914A03089590914A03892B80934A0365
:103EE0000895809590914A03892380934A03089509
:103EF00080934A03089510924A03089590914903CC
:103F0000892B8093490308958095909149038923D3
:103F100080934903089510924903089590914803AE
:103F2000892B8093480308958095909148038923B5
:103F300080934803089510924803089580912703C1
:103F4000089508950C94A11F0C94A21F909127032B
:103F5000981721F0809327030C94A41F0895809153
:103F60002703882329F01092270380E00C94A41FD4
:103F70000895E0912D01F0912E0180914A038083F4
:103F8000E0912D01F0912E01908180914903892BC0
:103F90008083E0912D01F0912E0190818091480362
:103FA000892B808380912703882381F0E0912D0164
:103FB000F0912E019081892B808380912D01909129
:103FC0002E010E94C72081110E94AF1F80912D01F8
:103FD00090912E010C9430130C94A11F98E0899FAE
:103FE00090011124262B209326030E94F21D80911C
:103FF00026038595859585950C94EC1F10922603D4
:1040000080E00C94EC1F20912603809582238093FE
:104010002603982F977079F430E0482F082E000C73
:10402000550B2417350739F08595859585950E94A0
:10403000131E0C94FE1F089580E090E00E94732BE5
:1040400021E08C3E9E4F09F020E0822F089582E00F
:1040500090E00C94652B83E090E00C94652BCF935B
:1040600084E090E00E94652BC82F81E290E00E94DE
:10407000652B2C2F30E0A901582BCA01CF91089550
:10408000CF93C92F682F84E090E00E94792B6C2F8A
:1040900081E290E0CF910C94792BAB01BC018FE0D1
:1040A00090E00C948B2B83E190E00C946D2BAB0192
:1040B000BC0183E190E00C948B2B60E070E0CB01BD
:1040C0000C94572060E070E0CB010E944D200C94CE
:1040D0005D206CEE7EEF80E090E00E94972B60E028
:1040E00082E090E00E94792B60E083E090E00E9403
:1040F000792B109222031092230310922403109222
:10410000250360E084E090E00E94792B60E081E28A
:1041100090E00E94792B60E085E090E00E94792B8E
:1041200060E086E090E00E94792B6FEF87E090E0FE
:104130000E94792B40E050E0BA0188E090E00E94B4
:104140008B2B60E08DE090E00E94792B40E050E006
:10415000BA0188E190E00E948B2B60E087E190E05B
:104160000E94792B40E050E0BA018CE190E00E947F
:104170008B2B60E080E290E00E94792B0C9462200F
:104180000C946920682F8EE090E00C94792BFC0150
:10419000329680913F01882331F08091930387FF0D
:1041A00002C09EE101C096E080E0915028F021918C
:1041B0002223D9F38F5FF9CF08959C01FC01329639
:1041C0009FEF80E04191461789F09F3F19F441111C
:1041D00001C0982F8F5F8630A9F79F3F39F0F90112
:1041E000E90FF11D97FDFA956283089508959C01EA
:1041F0002A5F3F4FFC014281461301C012820196A3
:1042000082179307B9F70895262F269526952695A8
:104210002E3168F4FC01E20FF11D677021E030E0FF
:1042200001C0220F6A95EAF78281282B2283089524
:10423000262F2695269526952E3170F4FC01E20F47
:10424000F11D677021E030E001C0220F6A95EAF7A6
:104250002095828128232283089520913F012223E3
:1042600029F02091930327FD0C9404210C94DD2068
:1042700020913F01222329F02091930327FD0C94E4
:1042800018210C94F72020913F01FC013296222343
:1042900031F08091930387FF02C08EE101C086E078
:1042A000DF011D928A95E9F7089508950C94552130
:1042B0000C945521CF930E9458210E949F0F0E9479
:1042C0005621C0E08C2F0E94310F892B29F4CF5F3B
:1042D000C430C1F780E001C081E0CF9108950C9413
:1042E00055210C946F210E94712180919903843093
:1042F00049F110924C0320E488E190E00FB6F89465
:10430000A895809360000FBE2093600080E00E941B
:10431000070C0E94712183B7817F846083BF83B7BC
:10432000816083BF7894889583B78E7F83BF0FB6F3
:10433000F894A89580916000886180936000109245
:1043400060000FBE08950C9455210E94BF180E9472
:1043500024130E94070C0C94A3211F920F920FB6F6
:104360000F9211248F939F93AF93BF9380914C032F
:10437000811113C080918F0390919003A0919103BC
:10438000B09192034196A11DB11D80938F0390932C
:104390009003A0939103B0939203BF91AF919F912B
:1043A0008F910F900FBE0F901F90189582E084BDE3
:1043B00093E095BD9AEF97BD80936E0008952FB757
:1043C000F89480918F0390919003A0919103B09104
:1043D00092032FBF0895CF92DF92EF92FF920F9337
:1043E0001F932FB7F89440918F03509190036091E1
:1043F0009103709192032FBF6A017B01EE24FF2489
:104400008C0120E030E0C016D106E206F30610F47D
:10441000415051099A01281B390BC9011F910F9175
:10442000FF90EF90DF90CF90089578941F920F92B5
:104430000FB60F9211248F939F93AF93BF938091E8
:104440008F0390919003A0919103B09192030196F4
:10445000A11DB11D80938F0390939003A0939103AE
:10446000B0939203BF91AF919F918F910F900FBE28
:104470000F901F90189587E797E790930108809316
:1044800000089AE088E10FB6F894A8958093600040
:104490000FBE90936000FFCF0E941C20811102C0CC
:1044A0000E94C0200E94272080934B030E942F204F
:1044B00090939403809393030E942B20682F70E0C5
:1044C00080E090E00C94921D8091500380FF0BC01F
:1044D0006091320185E0689FB00111247595679560
:1044E000759567952BC081FF09C06091320185E009
:1044F000689FB00111247595679520C082FF07C0A1
:104500006091320185E0689FB001112417C090913D
:104510004F039923D1F060913101961788F72091CC
:10452000320185E0289F90011124929FA001939F62
:10453000500D112470E0CA010E944B2B60387105A8
:1045400040F46115710519F406C065E070E0862F2E
:1045500008958FE7089581E008958091500380FFCA
:1045600008C06091300170E0759567957595679505
:1045700021C081FF06C06091300170E0759567959C
:1045800019C082FF04C06091300170E010C09091AA
:104590004F03992399F060912F019617A0F780910E
:1045A0003001899FC001112470E00E944B2B6038BC
:1045B000710540F46115710519F406C061E070E001
:1045C000862F08958FE7089581E00895803F21F4B4
:1045D0000E946422819504C0813F29F40E946422D4
:1045E000809354030895823F21F40E9464228195B0
:1045F00004C0833F29F40E946422809353030895EA
:10460000893F19F40E94AD2205C08A3F31F40E940F
:10461000AD2281958093550308958B3F21F40E942C
:10462000AD22819504C08C3F29F40E94AD22809375
:1046300056030895843F21F480915203816017C08E
:10464000853F21F480915203826011C0863F21F49E
:104650008091520384600BC0873F21F48091520304
:10466000886005C0883F31F4809152038061809357
:10467000520308958D3F21F48091500381600BC057
:104680008E3F21F480915003826005C08F3F29F452
:10469000809150038460809350030895803F39F4E3
:1046A0008091540387FF6CC01092540369C0813F0E
:1046B00029F4809154031816BCF362C090915303FF
:1046C000823F29F497FF5CC01092530359C0833F87
:1046D00019F41916CCF354C0893F41F48091550365
:1046E00018160CF04DC0109255034AC08A3F29F4A9
:1046F0008091550387FF44C0F6CF8B3F39F48091FA
:10470000560387FF3DC0109256033AC08C3F29F4F0
:10471000809156031816BCF333C0843F21F4809176
:1047200052038E7F17C0853F21F4809152038D7F05
:1047300011C0863F21F4809152038B7F0BC0873FCD
:1047400021F480915203877F05C0883F31F4809126
:1047500052038F7E8093520313C08D3F21F48091CA
:1047600050038E7F0BC08E3F21F4809150038D7FCC
:1047700005C08F3F29F4809150038B7F80935003B5
:104780008091530381110EC08091540381110AC09E
:1047900080915503811106C080915603811102C09A
:1047A00010924F03089581E593E00E944A130E94FE
:1047B000DF2190934E0380934D0308951F93CF9371
:1047C000DF9380914D0390914E030E94EB21AC0149
:1047D00090914F03992321F02091330130E006C0DE
:1047E000209134018AE0289F900111244217530739
:1047F00008F47BC080915303C0915403D0915503BA
:1048000010915603811107C0C1116BC0D11169C04D
:10481000111167C06AC09F3F19F09F5F90934F03CB
:10482000181624F40E94642280935303809153034A
:1048300087FF05C00E9464228195809353031C1654
:1048400024F40E946422809354038091540387FFD0
:1048500005C00E94642281958093540330915303D4
:104860003323E1F0209154032223C1F045EB3403BC
:10487000C0011124992319F09093530303C081E0E0
:104880008093530335EB2303C0011124992319F0BE
:104890009093540303C081E0809354031D1624F4C5
:1048A0000E94AD22809355038091550387FF05C078
:1048B0000E94AD22819580935503111624F40E9425
:1048C000AD22809356038091560387FF05C00E9456
:1048D000AD22819580935603DF91CF911F910C9467
:1048E000D3239F3F09F099CFAACFDF91CF911F919A
:1048F0000895E1E5F3E086E0DF011D928A95E9F78E
:1049000010924F03109250030895809177030895F9
:104910000895CF93DF93EC010E947C26823011F042
:104920008430F9F482E08093E9008FEF9091E80001
:10493000815095FD06C095ED9A95F1F70000811123
:10494000F5CF8091E80085FF0CC040E050E066E0C4
:1049500070E0CE010E9499268091E8008E778093C6
:10496000E800DF91CF910895CF93DF93EC010E948F
:104970007C26823011F08430D9F580913F01882364
:1049800039F08091930387FF03C060E282E002C0A8
:1049900068E081E08093E9008FEF9091E80081501A
:1049A00095FD06C095ED9A95F1F700008111F5CFC0
:1049B0008091E80085FF1CC080913F01811105C0F6
:1049C00040E050E068E070E003C070E040E050E09C
:1049D000CE010E9499268091E8008E778093E800AE
:1049E00080E2FE01A7E5B3E001900D928A95E1F720
:1049F000DF91CF910895089580919803811109C0A6
:104A00000E942A280E9487288091E2008460809377
:104A1000E2000895109298030895089508950C9463
:104A2000A52142E061EC81E00E94A32742E261EC13
:104A300082E00C94A32780919B03833009F460C02B
:104A400030F4813071F0823009F499C008958A30D1
:104A500009F485C08B3009F46BC0893009F0A7C018
:104A600020C080919A03813A09F0A1C08091E800AA
:104A7000877F8093E80080919E0390919F03892B0C
:104A800021F460E287E593E003C060E080E090E01D
:104A900070E00E94E4268091E8008B778093E80024
:104AA000089580919A03813209F081C080919E031C
:104AB00090919F03029708F07AC08091E800877F69
:104AC0008093E8008091E80082FD05C08091990301
:104AD0008111F8CF6CC02091F3008091F20090E03A
:104AE000922B029729F48091F1008B7F813021F481
:104AF0008091F100809377038091E8008B7753C019
:104B000080919A03813A09F052C080919E0390915E
:104B10009F03892B09F04BC08091E800877F809329
:104B2000E8008091E80080FFFCCF80913F0136C013
:104B300080919A038132D9F580919E0390919F03D1
:104B4000892BA9F58091E800877F8093E8000E9477
:104B5000D82780919C0380933F010C94BF188091CB
:104B60009A03813221F58091E800877F8093E800E5
:104B70000E94D82780919D038093780308958091A7
:104B80009A03813AA1F48091E800877F8093E8003E
:104B90008091E80080FFFCCF809178038093F10042
:104BA0008091E8008E778093E8000C94D8270895D0
:104BB00084B7877F84BF0FB6F894A8958091600072
:104BC000886180936000109260000FBE80E880933F
:104BD0006100109261000E9494130E942A280E9492
:104BE00087288091E20084608093E20078940E949C
:104BF0001C2B0E949C1385E391E00E941F1380915F
:104C00009903853069F40E9473218091970388236A
:104C1000B1F30E945A21882391F30E948326EFCF9B
:104C20000E94A413ECCF0C941526292F3327233090
:104C30003105C9F060F42130310581F022303105B1
:104C400009F04AC08BE390E026E737E049C0213203
:104C5000310511F12232310579F13EC082E190E057
:104C600021EB37E03DC099278130910561F040F09C
:104C70008230910559F0039779F5ECE4F7E008C02C
:104C8000E2E7F7E005C0E2E6F7E002C0E2E5F7E0C0
:104C9000849190E09F0124C06115710541F061305D
:104CA0007105D1F489E090E021EA37E019C089E08C
:104CB00090E028E837E014C06115710541F06130DB
:104CC000710551F48AE890E023EC37E009C080E4F4
:104CD00090E02DE438E004C080E090E020E030E097
:104CE000FA0131832083089580919903843011F073
:104CF00081E0089582E0089580917903811102C0D6
:104D00000C947426089580E189BD82E189BD09B4BF
:104D100000FEFDCF8091D8008F7D8093D8008091D8
:104D2000E00082608093E0008091E00081FDFCCF94
:104D30000895CF92DF92EF92FF920F931F93CF933C
:104D4000DF93EC018B017A010E94F727811133C0B8
:104D5000E114F10439F0F70180819181081B190BEE
:104D6000C80FD91FC12CD12C0115110519F1809143
:104D7000E80085FD16C08091E8008E778093E800FA
:104D8000E114F10449F0F70180819181C80ED91E28
:104D9000D182C08285E00FC00E94F727882321F3CB
:104DA0000AC089918093F10001501109FFEFCF1AD9
:104DB000DF0ADACF80E0DF91CF911F910F91FF9052
:104DC000EF90DF90CF9008952091A0033091A10340
:104DD0002617370748F06115710539F42091E8006E
:104DE0002E772093E80001C0B901FC0120E0611595
:104DF000710579F1809199038823F1F18530F1F102
:104E00008091E80083FD3CC08091E80082FD2EC0C7
:104E10008091E80080FFEBCF2091F3008091F200B9
:104E200090E0922B6115710551F08830910538F4AE
:104E300021912093F100615071090196F3CF21E097
:104E4000089709F020E08091E8008E778093E800D1
:104E5000CECF2111CFCF0AC080919903882361F072
:104E6000853061F08091E80083FD0AC08091E80000
:104E700082FFF2CF80E0089582E0089583E00895F4
:104E800081E008952091A0033091A10326173707F0
:104E900048F06115710539F42091E8002E772093D0
:104EA000E80001C0B901FC0120E06115710591F134
:104EB00080919903882309F440C0853009F43FC0EC
:104EC0008091E80083FD3DC08091E80082FD2FC005
:104ED0008091E80080FFE9CF2091F3008091F200FB
:104EE00090E0922B6115710559F08830910540F4DE
:104EF00024912093F1003196615071090196F2CF0F
:104F000021E0089709F020E08091E8008E778093F7
:104F1000E800CBCF2111CCCF0AC080919903882320
:104F200061F0853061F08091E80083FD0AC08091D6
:104F3000E80082FFF2CF80E0089582E0089583E0E8
:104F4000089581E00895982F973068F59093E900CF
:104F5000981739F07091EC002091ED005091F0001D
:104F600003C0242F762F50E021FD02C09F5FECCFBD
:104F70003091EB003E7F3093EB003091ED003D7FB0
:104F80003093ED003091EB0031603093EB00709383
:104F9000EC002093ED005093F0002091EE0027FDEF
:104FA000E5CF80E008958F708093E90081E0089557
:104FB00080919A0387FF11C08091E80082FD05C0AF
:104FC000809199038111F8CF11C08091E8008B770F
:104FD0000BC080919903882349F08091E80080FFFD
:104FE000F8CF8091E8008E778093E80008952091B3
:104FF000E4003091E50095E64091EC00842F81704B
:1050000040FF23C08091E80080FD1DC0809199037E
:10501000882399F0853099F08091EB0085FD11C0CF
:105020004091E4005091E5002417350729F3915091
:1050300011F09A01E1CF84E0089582E0089583E0C1
:10504000089581E0089580E008954091E80042FFCE
:10505000DDCF08950E9498280E94A028E0EEF0E09D
:10506000808181608083E8EDF0E080818F778083AC
:1050700019BCA7EDB0E08C918E7F8C9380818F7EE0
:1050800080831092980308950F931F93CF93DF931B
:105090000E9498280E94A028C8EDD0E088818F77D0
:1050A000888388818068888388818F7D888319BC04
:1050B0001092990310929503109297031092960301
:1050C00000EE10E0F80180818B7F80838881816011
:1050D000888342E060E080E00E94A327E1EEF0E0F8
:1050E00080818E7F8083E2EEF0E08081816080832A
:1050F000808188608083F80180818E7F80838881B1
:1051000080618883DF91CF911F910F910895E8ED21
:10511000F0E080818F7E8083E7EDF0E08081816028
:10512000808384E082BF81E0809398030C944428BC
:10513000E8EDF0E080818E7F80831092E200089598
:105140001092DA001092E10008951F920F920FB6AC
:105150000F9211242F933F934F935F936F937F93FD
:105160008F939F93AF93BF93EF93FF938091E10051
:1051700082FF0BC08091E20082FF07C08091E100B6
:105180008B7F8093E1000E941B2B8091DA0080FFCF
:105190001FC08091D80080FF1BC08091DA008E7FF5
:1051A0008093DA008091D90080FF0DC080E189BD35
:1051B00082E189BD09B400FEFDCF81E080939903AF
:1051C0000E94FC2405C019BC109299030E940A2574
:1051D0008091E10080FF19C08091E20080FF15C03E
:1051E0008091E2008E7F8093E2008091E2008061F6
:1051F0008093E2008091D80080628093D80019BC2F
:1052000085E0809399030E940E258091E10084FF40
:1052100030C08091E20084FF2CC080E189BD82E132
:1052200089BD09B400FEFDCF8091D8008F7D8093A9
:10523000D8008091E1008F7E8093E1008091E200B0
:105240008F7E8093E2008091E20081608093E20093
:1052500080919503882311F084E007C08091E300DA
:1052600087FD02C081E001C083E0809399030E9422
:105270000F258091E10083FF29C08091E20083FF28
:1052800025C08091E100877F8093E10082E08093D8
:105290009903109295038091E1008E7F8093E10045
:1052A0008091E2008E7F8093E2008091E200806135
:1052B0008093E20042E060E080E00E94A3278091BA
:1052C000F00088608093F0000E940D25FF91EF911F
:1052D000BF91AF919F918F917F916F915F914F910E
:1052E0003F912F910F900FBE0F901F9018951F9216
:1052F0000F920FB60F9211242F933F934F935F930A
:105300006F937F938F939F93AF93BF93CF93DF93CD
:10531000EF93FF93C091E900CF708091EC00D82FFC
:10532000D17080FDD0E81092E9008091F000877F75
:105330008093F00078940E94BB291092E90080913C
:10534000F00088608093F000CD2BCF70C093E9000F
:10535000FF91EF91DF91CF91BF91AF919F918F918D
:105360007F916F915F914F913F912F910F900FBE61
:105370000F901F9018951F93CF93DF93CDB7DEB793
:10538000AA970FB6F894DEBF0FBECDBFEAE9F3E0EF
:105390008091F100819323E0E23AF207C9F70E947D
:1053A0001B258091E80083FF2EC180919A03909184
:1053B0009B03492F50E04A30510508F024C1FA01FF
:1053C000ED55FF4F0C945F2B803821F0823809F0A7
:1053D0001AC108C08091960390919703992389F090
:1053E00082600FC080919E038F70873008F00BC1E0
:1053F0008093E9008091EB0085FB882780F910926B
:10540000E9009091E800977F9093E8008093F10085
:105410001092F100D1C0282F2D7F09F0F4C088230D
:1054200019F0823061F0EFC080919C03813009F067
:10543000EAC0933009F080E0809397032EC08091FA
:105440009C0381112AC080919E038F702FEF280F3B
:10545000263008F0D8C08093E9002091EB0020FFAF
:105460001CC0933021F48091EB00806214C09091B5
:10547000EB0090619093EB0021E030E0A90102C0C5
:10548000440F551F8A95E2F74093EA001092EA0014
:105490008091EB0088608093EB001092E90080918E
:1054A000E800877F8093E8000E94D827ACC0811174
:1054B000AAC010919C031F778091E3008078812B14
:1054C0008093E3008091E800877F8093E8000E944A
:1054D000D8278091E80080FFFCCF8091E3008068AE
:1054E0008093E300111102C082E001C083E0809349
:1054F000990389C08058823008F085C080919C0350
:1055000090919D038C3D53E0950779F583E08A8364
:105510008AE289834FB7F894DE01139620E03EE0DB
:1055200051E2E32FF0E050935700E49120FF03C0D5
:10553000E295EF703F5FEF708E2F90E0EA3010F051
:10554000C79601C0C0968D939D932F5F243149F774
:105550004FBF8091E800877F8093E8006AE270E0A7
:10556000CE0101960E94E42616C060919E037091C0
:105570009F03AE014F5F5F4F0E941326BC01892B32
:1055800009F441C09091E800977F9093E8008981E9
:105590009A810E9442278091E8008B778093E800EF
:1055A00032C0803881F58091E800877F8093E800E1
:1055B000809195038093F1008091E8008E7772CFFF
:1055C000811121C080919C0390919D03992702979E
:1055D000D4F48091E800877F8093E80080919C0359
:1055E000809395030E94D82780919503811106C06E
:1055F0008091E30087FD02C081E001C084E08093D8
:1056000099030E9411258091E80083FF0AC08091D0
:10561000E800877F8093E8008091EB0080628093B0
:10562000EB00AA960FB6F894DEBF0FBECDBFDF9198
:10563000CF911F9108950895CF9380919903882366
:10564000A1F0C091E900CF709091EC00892F81709A
:1056500090FD80E8C82B1092E9008091E80083FD5E
:105660000E94BB29CF70C093E900CF910895AA1B77
:10567000BB1B51E107C0AA1FBB1FA617B70710F03D
:10568000A61BB70B881F991F5A95A9F7809590956F
:10569000BC01CD01089597FB072E16F4009407D0A6
:1056A00077FD09D00E94372B07FC05D03EF490957A
:1056B00081959F4F0895709561957F4F0895EE0FE6
:1056C000FF1F0590F491E02D0994F999FECF92BD4A
:1056D00081BDF89A992780B50895A6E1B0E044E02D
:1056E00050E00C949F2BA8E1B0E042E050E00C9415
:1056F0009F2B262FF999FECF92BD81BDF89A019775
:1057000000B4021639F01FBA20BD0FB6F894FA9A09
:10571000F99A0FBE08950396272F0E947A2B0E94B4
:10572000792B252F0E947A2B242F0C947A2B01960B
:10573000272F0E947A2B0C94792BDC01CB01FC01E2
:10574000F999FECF06C0F2BDE1BDF89A319600B4DA
:0E5750000D9241505040B8F70895F894FFCFE5
:10575E003307E1080000005E017D0000000000003C
:10576E000000000000000000000000000000002902
:10577E0001FA0000000000000090049104280328A4
:10578E0008140A321E8524B4248924FB248824019B
:10579E00444F55004B414E415F4241534520494DC8
:1057AE00004E69636F6C610028002A0029002000FA
:1057BE002C002E002F002D006661006669006675B4
:1057CE0000666500666F007661007669007675008A
:1057DE00766500766F006E6E006C74750073796579
:1057EE000064656C69006465797500646F6C7500A2
:1057FE00746F6C750074696C690074696C65007403
:10580E00656C690074756C610074756C69007475F3
:10581E006C650074756C6F005157455254590043B6
:10582E006F6C616D616B0044766F72616B0030322C
:10583E00890000002F290100012901290139005E8C
:10584E00013A0060013B0062013C0064013D0066CC
:10585E0001000255010004930100069D010008ACF1
:10586E0001000AC5012002680120046B0120066EAA
:10587E000120087101200A74018702770187047ADA
:10588E000187007D0187088001870A830137008622
:10589E00013800890110088D010704BA010708BFFD
:1058AE0001070AC40197049101970E960198069B71
:1058BE00011806A0011504A5011508AA011704AFC9
:1058CE00011602B4011604B9011608BE01160AC368
:1058DE0001C801CF01D7010A0346032803F4F5F6E8
:0C58EE00F7313332929190946697C634E3
:00000001FF
